{
  "contractName": "PlaceDeMarche",
  "abi": [
    {
      "constant": true,
      "inputs": [
        {
          "name": "",
          "type": "uint256"
        }
      ],
      "name": "admins",
      "outputs": [
        {
          "name": "",
          "type": "address"
        }
      ],
      "payable": false,
      "stateMutability": "view",
      "type": "function"
    },
    {
      "constant": true,
      "inputs": [
        {
          "name": "",
          "type": "uint256"
        }
      ],
      "name": "companies",
      "outputs": [
        {
          "name": "",
          "type": "address"
        }
      ],
      "payable": false,
      "stateMutability": "view",
      "type": "function"
    },
    {
      "constant": true,
      "inputs": [
        {
          "name": "",
          "type": "address"
        }
      ],
      "name": "blackList",
      "outputs": [
        {
          "name": "",
          "type": "bool"
        }
      ],
      "payable": false,
      "stateMutability": "view",
      "type": "function"
    },
    {
      "constant": true,
      "inputs": [],
      "name": "wallet",
      "outputs": [
        {
          "name": "",
          "type": "address"
        }
      ],
      "payable": false,
      "stateMutability": "view",
      "type": "function"
    },
    {
      "constant": true,
      "inputs": [],
      "name": "owner",
      "outputs": [
        {
          "name": "",
          "type": "address"
        }
      ],
      "payable": false,
      "stateMutability": "view",
      "type": "function"
    },
    {
      "constant": true,
      "inputs": [
        {
          "name": "",
          "type": "address"
        }
      ],
      "name": "users",
      "outputs": [
        {
          "name": "",
          "type": "bool"
        }
      ],
      "payable": false,
      "stateMutability": "view",
      "type": "function"
    },
    {
      "constant": true,
      "inputs": [
        {
          "name": "",
          "type": "uint256"
        }
      ],
      "name": "demandes",
      "outputs": [
        {
          "name": "id",
          "type": "uint256"
        },
        {
          "name": "nomOffre",
          "type": "string"
        },
        {
          "name": "addressCompany",
          "type": "address"
        },
        {
          "name": "remuneration",
          "type": "uint256"
        },
        {
          "name": "depot",
          "type": "uint256"
        },
        {
          "name": "delay",
          "type": "uint256"
        },
        {
          "name": "description",
          "type": "string"
        },
        {
          "name": "status",
          "type": "uint8"
        },
        {
          "name": "minReputation",
          "type": "uint256"
        },
        {
          "name": "illustrateurChoisi",
          "type": "address"
        },
        {
          "name": "travail",
          "type": "bytes32"
        }
      ],
      "payable": false,
      "stateMutability": "view",
      "type": "function"
    },
    {
      "constant": true,
      "inputs": [
        {
          "name": "",
          "type": "address"
        }
      ],
      "name": "userToReputation",
      "outputs": [
        {
          "name": "",
          "type": "uint256"
        }
      ],
      "payable": false,
      "stateMutability": "view",
      "type": "function"
    },
    {
      "constant": true,
      "inputs": [
        {
          "name": "",
          "type": "address"
        }
      ],
      "name": "userToName",
      "outputs": [
        {
          "name": "",
          "type": "string"
        }
      ],
      "payable": false,
      "stateMutability": "view",
      "type": "function"
    },
    {
      "inputs": [],
      "payable": false,
      "stateMutability": "nonpayable",
      "type": "constructor"
    },
    {
      "anonymous": false,
      "inputs": [
        {
          "indexed": false,
          "name": "_name",
          "type": "string"
        }
      ],
      "name": "inscription_illustrateur",
      "type": "event"
    },
    {
      "constant": true,
      "inputs": [],
      "name": "getAdminLength",
      "outputs": [
        {
          "name": "",
          "type": "uint256"
        }
      ],
      "payable": false,
      "stateMutability": "view",
      "type": "function"
    },
    {
      "constant": true,
      "inputs": [],
      "name": "getCompaniesLength",
      "outputs": [
        {
          "name": "",
          "type": "uint256"
        }
      ],
      "payable": false,
      "stateMutability": "view",
      "type": "function"
    },
    {
      "constant": true,
      "inputs": [
        {
          "name": "_id",
          "type": "uint256"
        }
      ],
      "name": "getDemande",
      "outputs": [
        {
          "components": [
            {
              "name": "id",
              "type": "uint256"
            },
            {
              "name": "nomOffre",
              "type": "string"
            },
            {
              "name": "addressCompany",
              "type": "address"
            },
            {
              "name": "remuneration",
              "type": "uint256"
            },
            {
              "name": "depot",
              "type": "uint256"
            },
            {
              "name": "delay",
              "type": "uint256"
            },
            {
              "name": "description",
              "type": "string"
            },
            {
              "name": "status",
              "type": "uint8"
            },
            {
              "name": "minReputation",
              "type": "uint256"
            },
            {
              "name": "candidates",
              "type": "address[]"
            },
            {
              "name": "illustrateurChoisi",
              "type": "address"
            },
            {
              "name": "travail",
              "type": "bytes32"
            }
          ],
          "name": "",
          "type": "tuple"
        }
      ],
      "payable": false,
      "stateMutability": "view",
      "type": "function"
    },
    {
      "constant": true,
      "inputs": [],
      "name": "getAllDemandes",
      "outputs": [
        {
          "components": [
            {
              "name": "id",
              "type": "uint256"
            },
            {
              "name": "nomOffre",
              "type": "string"
            },
            {
              "name": "addressCompany",
              "type": "address"
            },
            {
              "name": "remuneration",
              "type": "uint256"
            },
            {
              "name": "depot",
              "type": "uint256"
            },
            {
              "name": "delay",
              "type": "uint256"
            },
            {
              "name": "description",
              "type": "string"
            },
            {
              "name": "status",
              "type": "uint8"
            },
            {
              "name": "minReputation",
              "type": "uint256"
            },
            {
              "name": "candidates",
              "type": "address[]"
            },
            {
              "name": "illustrateurChoisi",
              "type": "address"
            },
            {
              "name": "travail",
              "type": "bytes32"
            }
          ],
          "name": "",
          "type": "tuple[]"
        }
      ],
      "payable": false,
      "stateMutability": "view",
      "type": "function"
    },
    {
      "constant": false,
      "inputs": [
        {
          "name": "newAdmin",
          "type": "address"
        }
      ],
      "name": "addAdmin",
      "outputs": [],
      "payable": false,
      "stateMutability": "nonpayable",
      "type": "function"
    },
    {
      "constant": false,
      "inputs": [
        {
          "name": "_name",
          "type": "string"
        }
      ],
      "name": "inscription",
      "outputs": [],
      "payable": false,
      "stateMutability": "nonpayable",
      "type": "function"
    },
    {
      "constant": false,
      "inputs": [],
      "name": "inscriptionCompany",
      "outputs": [],
      "payable": false,
      "stateMutability": "nonpayable",
      "type": "function"
    },
    {
      "constant": false,
      "inputs": [
        {
          "name": "_remuneration",
          "type": "uint256"
        },
        {
          "name": "_delay",
          "type": "uint256"
        },
        {
          "name": "_description",
          "type": "string"
        },
        {
          "name": "_minReputation",
          "type": "uint256"
        },
        {
          "name": "_nomOffre",
          "type": "string"
        }
      ],
      "name": "ajouterDemande",
      "outputs": [],
      "payable": true,
      "stateMutability": "payable",
      "type": "function"
    },
    {
      "constant": false,
      "inputs": [
        {
          "name": "_idDemande",
          "type": "uint256"
        }
      ],
      "name": "postuler",
      "outputs": [],
      "payable": false,
      "stateMutability": "nonpayable",
      "type": "function"
    },
    {
      "constant": false,
      "inputs": [
        {
          "name": "_idDemande",
          "type": "uint256"
        },
        {
          "name": "_illustrateur",
          "type": "address"
        }
      ],
      "name": "accepterOffre",
      "outputs": [],
      "payable": false,
      "stateMutability": "nonpayable",
      "type": "function"
    },
    {
      "constant": false,
      "inputs": [
        {
          "name": "_idDemande",
          "type": "uint256"
        },
        {
          "name": "_travail",
          "type": "string"
        }
      ],
      "name": "livraison",
      "outputs": [],
      "payable": true,
      "stateMutability": "payable",
      "type": "function"
    },
    {
      "constant": false,
      "inputs": [
        {
          "name": "_idDemande",
          "type": "uint256"
        }
      ],
      "name": "retard",
      "outputs": [],
      "payable": false,
      "stateMutability": "nonpayable",
      "type": "function"
    },
    {
      "constant": false,
      "inputs": [
        {
          "name": "_illustrateur",
          "type": "address"
        }
      ],
      "name": "banned",
      "outputs": [],
      "payable": false,
      "stateMutability": "nonpayable",
      "type": "function"
    },
    {
      "constant": true,
      "inputs": [
        {
          "name": "user",
          "type": "address"
        }
      ],
      "name": "isAdmin",
      "outputs": [
        {
          "name": "",
          "type": "bool"
        }
      ],
      "payable": false,
      "stateMutability": "view",
      "type": "function"
    },
    {
      "constant": true,
      "inputs": [
        {
          "name": "company",
          "type": "address"
        }
      ],
      "name": "isCompanyInscrit",
      "outputs": [
        {
          "name": "",
          "type": "bool"
        }
      ],
      "payable": false,
      "stateMutability": "view",
      "type": "function"
    },
    {
      "constant": true,
      "inputs": [
        {
          "name": "_idDemande",
          "type": "uint256"
        }
      ],
      "name": "idDemandeToCompany",
      "outputs": [
        {
          "name": "",
          "type": "bool"
        }
      ],
      "payable": false,
      "stateMutability": "view",
      "type": "function"
    },
    {
      "constant": true,
      "inputs": [
        {
          "name": "_idDemande",
          "type": "uint256"
        },
        {
          "name": "_illustrateur",
          "type": "address"
        }
      ],
      "name": "isInCandidates",
      "outputs": [
        {
          "name": "",
          "type": "bool"
        }
      ],
      "payable": false,
      "stateMutability": "view",
      "type": "function"
    },
    {
      "constant": true,
      "inputs": [
        {
          "name": "_idDemande",
          "type": "uint256"
        },
        {
          "name": "_illustrateur",
          "type": "address"
        }
      ],
      "name": "aDejaPostule",
      "outputs": [
        {
          "name": "",
          "type": "bool"
        }
      ],
      "payable": false,
      "stateMutability": "view",
      "type": "function"
    }
  ],
  "bytecode": "0x608060405234801561001057600080fd5b5033600460006101000a81548173ffffffffffffffffffffffffffffffffffffffff021916908373ffffffffffffffffffffffffffffffffffffffff1602179055506007600460009054906101000a900473ffffffffffffffffffffffffffffffffffffffff1690806001815401808255809150509060018203906000526020600020016000909192909190916101000a81548173ffffffffffffffffffffffffffffffffffffffff021916908373ffffffffffffffffffffffffffffffffffffffff16021790555050613163806100e96000396000f3fe60806040526004361061015f576000357c0100000000000000000000000000000000000000000000000000000000900463ffffffff16806314bfd6d01461016457806324d7806c146101a15780632813d19d146101de578063297600191461021b5780632a83a428146102325780632ce78fc01461026f5780634476cf59146102ac57806345ea43b0146102d55780634838d165146102fe578063521eb2731461033b5780637048027514610366578063798519d11461038f57806381d58f79146103ab57806382a14a1e146103e85780638da5cb5b146104255780639c8d83bb14610450578063a64dc75a14610479578063a87430ba146104b6578063afbe9e23146104f3578063b27dd6691461050f578063b5e2bf2f14610538578063d67469ce1461057f578063dc89de68146105aa578063e783a5b4146105d5578063ebf71919146105fe578063ec9a2bb01461063b578063fff8d16114610678575b600080fd5b34801561017057600080fd5b5061018b6004803603610186919081019061253f565b6106a3565b6040516101989190612cc8565b60405180910390f35b3480156101ad57600080fd5b506101c860048036036101c391908101906124d5565b6106e1565b6040516101d59190612d20565b60405180910390f35b3480156101ea57600080fd5b506102056004803603610200919081019061253f565b610785565b6040516102129190612cc8565b60405180910390f35b34801561022757600080fd5b506102306107c3565b005b34801561023e57600080fd5b50610259600480360361025491908101906124d5565b610876565b6040516102669190612d20565b60405180910390f35b34801561027b57600080fd5b506102966004803603610291919081019061253f565b61091a565b6040516102a39190612e7f565b60405180910390f35b3480156102b857600080fd5b506102d360048036036102ce91908101906124fe565b610c3a565b005b3480156102e157600080fd5b506102fc60048036036102f7919081019061253f565b610e5a565b005b34801561030a57600080fd5b50610325600480360361032091908101906124d5565b611028565b6040516103329190612d20565b60405180910390f35b34801561034757600080fd5b50610350611048565b60405161035d9190612ce3565b60405180910390f35b34801561037257600080fd5b5061038d600480360361038891908101906124d5565b61106e565b005b6103a960048036036103a491908101906125a4565b611121565b005b3480156103b757600080fd5b506103d260048036036103cd919081019061253f565b611262565b6040516103df9190612d20565b60405180910390f35b3480156103f457600080fd5b5061040f600480360361040a9190810190612568565b61130d565b60405161041c9190612d20565b60405180910390f35b34801561043157600080fd5b5061043a6113ee565b6040516104479190612cc8565b60405180910390f35b34801561045c57600080fd5b50610477600480360361047291908101906124d5565b611414565b005b34801561048557600080fd5b506104a0600480360361049b9190810190612568565b611594565b6040516104ad9190612d20565b60405180910390f35b3480156104c257600080fd5b506104dd60048036036104d891908101906124d5565b611675565b6040516104ea9190612d20565b60405180910390f35b61050d600480360361050891908101906125f8565b611695565b005b34801561051b57600080fd5b506105366004803603610531919081019061253f565b611918565b005b34801561054457600080fd5b5061055f600480360361055a919081019061253f565b611a0e565b6040516105769b9a99989796959493929190612ebc565b60405180910390f35b34801561058b57600080fd5b50610594611bf4565b6040516105a19190612ea1565b60405180910390f35b3480156105b657600080fd5b506105bf611c01565b6040516105cc9190612ea1565b60405180910390f35b3480156105e157600080fd5b506105fc60048036036105f79190810190612568565b611c0e565b005b34801561060a57600080fd5b50610625600480360361062091908101906124d5565b611d98565b6040516106329190612ea1565b60405180910390f35b34801561064757600080fd5b50610662600480360361065d91908101906124d5565b611db0565b60405161066f9190612d3b565b60405180910390f35b34801561068457600080fd5b5061068d611e60565b60405161069a9190612cfe565b60405180910390f35b6007818154811015156106b257fe5b906000526020600020016000915054906101000a900473ffffffffffffffffffffffffffffffffffffffff1681565b600080600090505b60078054905081101561077a5760078181548110151561070557fe5b9060005260206000200160009054906101000a900473ffffffffffffffffffffffffffffffffffffffff1673ffffffffffffffffffffffffffffffffffffffff168373ffffffffffffffffffffffffffffffffffffffff16141561076d576001915050610780565b80806001019150506106e9565b50600090505b919050565b60068181548110151561079457fe5b906000526020600020016000915054906101000a900473ffffffffffffffffffffffffffffffffffffffff1681565b6107cc33610876565b15151561080e576040517f08c379a000000000000000000000000000000000000000000000000000000000815260040161080590612e3f565b60405180910390fd5b60063390806001815401808255809150509060018203906000526020600020016000909192909190916101000a81548173ffffffffffffffffffffffffffffffffffffffff021916908373ffffffffffffffffffffffffffffffffffffffff16021790555050565b600080600090505b60068054905081101561090f5760068181548110151561089a57fe5b9060005260206000200160009054906101000a900473ffffffffffffffffffffffffffffffffffffffff1673ffffffffffffffffffffffffffffffffffffffff168373ffffffffffffffffffffffffffffffffffffffff161415610902576001915050610915565b808060010191505061087e565b50600090505b919050565b6109226121a8565b60088281548110151561093157fe5b90600052602060002090600c0201610180604051908101604052908160008201548152602001600182018054600181600116156101000203166002900480601f0160208091040260200160405190810160405280929190818152602001828054600181600116156101000203166002900480156109ef5780601f106109c4576101008083540402835291602001916109ef565b820191906000526020600020905b8154815290600101906020018083116109d257829003601f168201915b505050505081526020016002820160009054906101000a900473ffffffffffffffffffffffffffffffffffffffff1673ffffffffffffffffffffffffffffffffffffffff1673ffffffffffffffffffffffffffffffffffffffff168152602001600382015481526020016004820154815260200160058201548152602001600682018054600181600116156101000203166002900480601f016020809104026020016040519081016040528092919081815260200182805460018160011615610100020316600290048015610b055780601f10610ada57610100808354040283529160200191610b05565b820191906000526020600020905b815481529060010190602001808311610ae857829003601f168201915b505050505081526020016007820160009054906101000a900460ff166002811115610b2c57fe5b6002811115610b3757fe5b81526020016008820154815260200160098201805480602002602001604051908101604052809291908181526020018280548015610bca57602002820191906000526020600020905b8160009054906101000a900473ffffffffffffffffffffffffffffffffffffffff1673ffffffffffffffffffffffffffffffffffffffff1681526020019060010190808311610b80575b50505050508152602001600a820160009054906101000a900473ffffffffffffffffffffffffffffffffffffffff1673ffffffffffffffffffffffffffffffffffffffff1673ffffffffffffffffffffffffffffffffffffffff168152602001600b820154815250509050919050565b60011515600260003373ffffffffffffffffffffffffffffffffffffffff1673ffffffffffffffffffffffffffffffffffffffff16815260200190815260200160002060009054906101000a900460ff16151514151515610cd0576040517f08c379a0000000000000000000000000000000000000000000000000000000008152600401610cc790612d9f565b60405180910390fd5b60011515600360003373ffffffffffffffffffffffffffffffffffffffff1673ffffffffffffffffffffffffffffffffffffffff16815260200190815260200160002060009054906101000a900460ff16151514151515610d3057600080fd5b60016000803373ffffffffffffffffffffffffffffffffffffffff1673ffffffffffffffffffffffffffffffffffffffff1681526020019081526020016000208190555080600160003373ffffffffffffffffffffffffffffffffffffffff1673ffffffffffffffffffffffffffffffffffffffff1681526020019081526020016000209080519060200190610dc7929190612244565b506001600260003373ffffffffffffffffffffffffffffffffffffffff1673ffffffffffffffffffffffffffffffffffffffff16815260200190815260200160002060006101000a81548160ff0219169083151502179055507f4bdd714a3906e1a12c999068b9852e2df9a4bb134411fc2195fa54bb63d6f03c81604051610e4f9190612d5d565b60405180910390a150565b80610e658133611594565b151515610ea7576040517f08c379a0000000000000000000000000000000000000000000000000000000008152600401610e9e90612d7f565b60405180910390fd5b8160006002811115610eb557fe5b600882815481101515610ec457fe5b90600052602060002090600c020160070160009054906101000a900460ff166002811115610eee57fe5b141515610f30576040517f08c379a0000000000000000000000000000000000000000000000000000000008152600401610f2790612dbf565b60405180910390fd5b826000803373ffffffffffffffffffffffffffffffffffffffff1673ffffffffffffffffffffffffffffffffffffffff16815260200190815260200160002054600882815481101515610f7f57fe5b90600052602060002090600c02016008015411151515610f9e57600080fd5b600884815481101515610fad57fe5b90600052602060002090600c02016009013390806001815401808255809150509060018203906000526020600020016000909192909190916101000a81548173ffffffffffffffffffffffffffffffffffffffff021916908373ffffffffffffffffffffffffffffffffffffffff1602179055505050505050565b60036020528060005260406000206000915054906101000a900460ff1681565b600560009054906101000a900473ffffffffffffffffffffffffffffffffffffffff1681565b611077336106e1565b15156110b8576040517f08c379a00000000000000000000000000000000000000000000000000000000081526004016110af90612ddf565b60405180910390fd5b60078190806001815401808255809150509060018203906000526020600020016000909192909190916101000a81548173ffffffffffffffffffffffffffffffffffffffff021916908373ffffffffffffffffffffffffffffffffffffffff1602179055505050565b813373ffffffffffffffffffffffffffffffffffffffff1660088281548110151561114857fe5b90600052602060002090600c0201600a0160009054906101000a900473ffffffffffffffffffffffffffffffffffffffff1673ffffffffffffffffffffffffffffffffffffffff1614151561119c57600080fd5b600033905082805190602001206008858154811015156111b857fe5b90600052602060002090600c0201600b018190555060026008858154811015156111de57fe5b90600052602060002090600c020160070160006101000a81548160ff0219169083600281111561120a57fe5b021790555060016000803373ffffffffffffffffffffffffffffffffffffffff1673ffffffffffffffffffffffffffffffffffffffff1681526020019081526020016000206000828254019250508190555050505050565b600080600090505b6008805490508110156113025760088381548110151561128657fe5b90600052602060002090600c020160020160009054906101000a900473ffffffffffffffffffffffffffffffffffffffff1673ffffffffffffffffffffffffffffffffffffffff163373ffffffffffffffffffffffffffffffffffffffff1614156112f5576001915050611308565b808060010191505061126a565b50600090505b919050565b600080600090505b60088481548110151561132457fe5b90600052602060002090600c0201600901805490508110156113e25760088481548110151561134f57fe5b90600052602060002090600c02016009018181548110151561136d57fe5b9060005260206000200160009054906101000a900473ffffffffffffffffffffffffffffffffffffffff1673ffffffffffffffffffffffffffffffffffffffff168373ffffffffffffffffffffffffffffffffffffffff1614156113d55760019150506113e8565b8080600101915050611315565b50600090505b92915050565b600460009054906101000a900473ffffffffffffffffffffffffffffffffffffffff1681565b61141d336106e1565b151561145e576040517f08c379a000000000000000000000000000000000000000000000000000000000815260040161145590612ddf565b60405180910390fd5b8060011515600260008373ffffffffffffffffffffffffffffffffffffffff1673ffffffffffffffffffffffffffffffffffffffff16815260200190815260200160002060009054906101000a900460ff1615151415156114f4576040517f08c379a00000000000000000000000000000000000000000000000000000000081526004016114eb90612e5f565b60405180910390fd5b6001600360008473ffffffffffffffffffffffffffffffffffffffff1673ffffffffffffffffffffffffffffffffffffffff16815260200190815260200160002060006101000a81548160ff02191690831515021790555060008060008473ffffffffffffffffffffffffffffffffffffffff1673ffffffffffffffffffffffffffffffffffffffff168152602001908152602001600020819055505050565b600080600090505b6008848154811015156115ab57fe5b90600052602060002090600c020160090180549050811015611669576008848154811015156115d657fe5b90600052602060002090600c0201600901818154811015156115f457fe5b9060005260206000200160009054906101000a900473ffffffffffffffffffffffffffffffffffffffff1673ffffffffffffffffffffffffffffffffffffffff168373ffffffffffffffffffffffffffffffffffffffff16141561165c57600191505061166f565b808060010191505061159c565b50600090505b92915050565b60026020528060005260406000206000915054906101000a900460ff1681565b61169e33610876565b15156116df576040517f08c379a00000000000000000000000000000000000000000000000000000000081526004016116d690612dff565b60405180910390fd5b6116e76121a8565b81816020018190525033816040019073ffffffffffffffffffffffffffffffffffffffff16908173ffffffffffffffffffffffffffffffffffffffff168152505085816060018181525050348160800181815250508442018160a0018181525050838160c0018190525060008160e00190600281111561176357fe5b9081600281111561177057fe5b8152505082816101000181815250506001600880549050038160000181815250506008819080600181540180825580915050906001820390600052602060002090600c0201600090919290919091506000820151816000015560208201518160010190805190602001906117e59291906122c4565b5060408201518160020160006101000a81548173ffffffffffffffffffffffffffffffffffffffff021916908373ffffffffffffffffffffffffffffffffffffffff160217905550606082015181600301556080820151816004015560a0820151816005015560c08201518160060190805190602001906118679291906122c4565b5060e08201518160070160006101000a81548160ff0219169083600281111561188c57fe5b021790555061010082015181600801556101208201518160090190805190602001906118b9929190612344565b5061014082015181600a0160006101000a81548173ffffffffffffffffffffffffffffffffffffffff021916908373ffffffffffffffffffffffffffffffffffffffff16021790555061016082015181600b0155505050505050505050565b804260088281548110151561192957fe5b90600052602060002090600c02016005015411151561197d576040517f08c379a000000000000000000000000000000000000000000000000000000000815260040161197490612e1f565b60405180910390fd5b600160008060088581548110151561199157fe5b90600052602060002090600c0201600a0160009054906101000a900473ffffffffffffffffffffffffffffffffffffffff1673ffffffffffffffffffffffffffffffffffffffff1673ffffffffffffffffffffffffffffffffffffffff168152602001908152602001600020600082825403925050819055505050565b600881815481101515611a1d57fe5b90600052602060002090600c0201600091509050806000015490806001018054600181600116156101000203166002900480601f016020809104026020016040519081016040528092919081815260200182805460018160011615610100020316600290048015611acf5780601f10611aa457610100808354040283529160200191611acf565b820191906000526020600020905b815481529060010190602001808311611ab257829003601f168201915b5050505050908060020160009054906101000a900473ffffffffffffffffffffffffffffffffffffffff1690806003015490806004015490806005015490806006018054600181600116156101000203166002900480601f016020809104026020016040519081016040528092919081815260200182805460018160011615610100020316600290048015611ba55780601f10611b7a57610100808354040283529160200191611ba5565b820191906000526020600020905b815481529060010190602001808311611b8857829003601f168201915b5050505050908060070160009054906101000a900460ff169080600801549080600a0160009054906101000a900473ffffffffffffffffffffffffffffffffffffffff169080600b015490508b565b6000600780549050905090565b6000600680549050905090565b81611c1881611262565b1515611c2357600080fd5b8260006002811115611c3157fe5b600882815481101515611c4057fe5b90600052602060002090600c020160070160009054906101000a900460ff166002811115611c6a57fe5b141515611cac576040517f08c379a0000000000000000000000000000000000000000000000000000000008152600401611ca390612dbf565b60405180910390fd5b8383611cb8828261130d565b1515611cc357600080fd5b84600887815481101515611cd357fe5b90600052602060002090600c0201600a0160006101000a81548173ffffffffffffffffffffffffffffffffffffffff021916908373ffffffffffffffffffffffffffffffffffffffff1602179055506001600887815481101515611d3357fe5b90600052602060002090600c020160070160006101000a81548160ff02191690836002811115611d5f57fe5b0217905550600886815481101515611d7357fe5b90600052602060002090600c02016009016000611d9091906123ce565b505050505050565b60006020528060005260406000206000915090505481565b60016020528060005260406000206000915090508054600181600116156101000203166002900480601f016020809104026020016040519081016040528092919081815260200182805460018160011615610100020316600290048015611e585780601f10611e2d57610100808354040283529160200191611e58565b820191906000526020600020905b815481529060010190602001808311611e3b57829003601f168201915b505050505081565b60606008805480602002602001604051908101604052809291908181526020016000905b8282101561219f57838290600052602060002090600c0201610180604051908101604052908160008201548152602001600182018054600181600116156101000203166002900480601f016020809104026020016040519081016040528092919081815260200182805460018160011615610100020316600290048015611f4c5780601f10611f2157610100808354040283529160200191611f4c565b820191906000526020600020905b815481529060010190602001808311611f2f57829003601f168201915b505050505081526020016002820160009054906101000a900473ffffffffffffffffffffffffffffffffffffffff1673ffffffffffffffffffffffffffffffffffffffff1673ffffffffffffffffffffffffffffffffffffffff168152602001600382015481526020016004820154815260200160058201548152602001600682018054600181600116156101000203166002900480601f0160208091040260200160405190810160405280929190818152602001828054600181600116156101000203166002900480156120625780601f1061203757610100808354040283529160200191612062565b820191906000526020600020905b81548152906001019060200180831161204557829003601f168201915b505050505081526020016007820160009054906101000a900460ff16600281111561208957fe5b600281111561209457fe5b8152602001600882015481526020016009820180548060200260200160405190810160405280929190818152602001828054801561212757602002820191906000526020600020905b8160009054906101000a900473ffffffffffffffffffffffffffffffffffffffff1673ffffffffffffffffffffffffffffffffffffffff16815260200190600101908083116120dd575b50505050508152602001600a820160009054906101000a900473ffffffffffffffffffffffffffffffffffffffff1673ffffffffffffffffffffffffffffffffffffffff1673ffffffffffffffffffffffffffffffffffffffff168152602001600b8201548152505081526020019060010190611e84565b50505050905090565b610180604051908101604052806000815260200160608152602001600073ffffffffffffffffffffffffffffffffffffffff168152602001600081526020016000815260200160008152602001606081526020016000600281111561220957fe5b81526020016000815260200160608152602001600073ffffffffffffffffffffffffffffffffffffffff168152602001600080191681525090565b828054600181600116156101000203166002900490600052602060002090601f016020900481019282601f1061228557805160ff19168380011785556122b3565b828001600101855582156122b3579182015b828111156122b2578251825591602001919060010190612297565b5b5090506122c091906123ef565b5090565b828054600181600116156101000203166002900490600052602060002090601f016020900481019282601f1061230557805160ff1916838001178555612333565b82800160010185558215612333579182015b82811115612332578251825591602001919060010190612317565b5b50905061234091906123ef565b5090565b8280548282559060005260206000209081019282156123bd579160200282015b828111156123bc5782518260006101000a81548173ffffffffffffffffffffffffffffffffffffffff021916908373ffffffffffffffffffffffffffffffffffffffff16021790555091602001919060010190612364565b5b5090506123ca9190612414565b5090565b50805460008255906000526020600020908101906123ec91906123ef565b50565b61241191905b8082111561240d5760008160009055506001016123f5565b5090565b90565b61245491905b8082111561245057600081816101000a81549073ffffffffffffffffffffffffffffffffffffffff02191690555060010161241a565b5090565b90565b600061246382356130a8565b905092915050565b600082601f830112151561247e57600080fd5b813561249161248c82612fa2565b612f75565b915080825260208301602083018583830111156124ad57600080fd5b6124b88382846130d6565b50505092915050565b60006124cd82356130ba565b905092915050565b6000602082840312156124e757600080fd5b60006124f584828501612457565b91505092915050565b60006020828403121561251057600080fd5b600082013567ffffffffffffffff81111561252a57600080fd5b6125368482850161246b565b91505092915050565b60006020828403121561255157600080fd5b600061255f848285016124c1565b91505092915050565b6000806040838503121561257b57600080fd5b6000612589858286016124c1565b925050602061259a85828601612457565b9150509250929050565b600080604083850312156125b757600080fd5b60006125c5858286016124c1565b925050602083013567ffffffffffffffff8111156125e257600080fd5b6125ee8582860161246b565b9150509250929050565b600080600080600060a0868803121561261057600080fd5b600061261e888289016124c1565b955050602061262f888289016124c1565b945050604086013567ffffffffffffffff81111561264c57600080fd5b6126588882890161246b565b9350506060612669888289016124c1565b925050608086013567ffffffffffffffff81111561268657600080fd5b6126928882890161246b565b9150509295509295909350565b6126a881613040565b82525050565b6126b78161302e565b82525050565b60006126c882612fe8565b8084526020840193506126da83612fce565b60005b8281101561270c576126f08683516126ae565b6126f982613014565b91506020860195506001810190506126dd565b50849250505092915050565b600061272382612ff3565b8084526020840193508360208202850161273c85612fdb565b60005b84811015612775578383038852612757838351612ba7565b925061276282613021565b915060208801975060018101905061273f565b508196508694505050505092915050565b61278f81613052565b82525050565b61279e8161305e565b82525050565b6127ad816130c4565b82525050565b60006127be82613009565b8084526127d28160208601602086016130e5565b6127db81613118565b602085010191505092915050565b60006127f482612ffe565b8084526128088160208601602086016130e5565b61281181613118565b602085010191505092915050565b6000601682527f496c20612064c3a96ac3a020706f7374756cc3a92021000000000000000000006020830152604082019050919050565b6000602482527f436574207574696c69736174657572206573742064c3a96ac3a020696e73637260208301527f69742021000000000000000000000000000000000000000000000000000000006040830152606082019050919050565b6000601482527f42414820434553542054524f50205441524420210000000000000000000000006020830152604082019050919050565b6000602182527f566f7573206e27c3aa74657320706173206c652070726f707269c3a97461697260208301527f65000000000000000000000000000000000000000000000000000000000000006040830152606082019050919050565b6000602582527f566f74726520656e7472657072697365206e276573742070617320696e73637260208301527f69746520210000000000000000000000000000000000000000000000000000006040830152606082019050919050565b6000601782527f546f756a6f7572732064616e73206c65732074656d70730000000000000000006020830152604082019050919050565b6000602682527f566f74726520656e7472657072697365206573742064c3a96ac3a020696e736360208301527f72697465202100000000000000000000000000000000000000000000000000006040830152606082019050919050565b6000602c82527f566f7573206e6520706f7576657a207061732062616e20756e2074797065207060208301527f617320696e7363726974202100000000000000000000000000000000000000006040830152606082019050919050565b600061018083016000830151612aae6000860182612cb9565b5060208301518482036020860152612ac682826127e9565b9150506040830151612adb60408601826126ae565b506060830151612aee6060860182612cb9565b506080830151612b016080860182612cb9565b5060a0830151612b1460a0860182612cb9565b5060c083015184820360c0860152612b2c82826127e9565b91505060e0830151612b4160e08601826127a4565b50610100830151612b56610100860182612cb9565b50610120830151848203610120860152612b7082826126bd565b915050610140830151612b876101408601826126ae565b50610160830151612b9c610160860182612795565b508091505092915050565b600061018083016000830151612bc06000860182612cb9565b5060208301518482036020860152612bd882826127e9565b9150506040830151612bed60408601826126ae565b506060830151612c006060860182612cb9565b506080830151612c136080860182612cb9565b5060a0830151612c2660a0860182612cb9565b5060c083015184820360c0860152612c3e82826127e9565b91505060e0830151612c5360e08601826127a4565b50610100830151612c68610100860182612cb9565b50610120830151848203610120860152612c8282826126bd565b915050610140830151612c996101408601826126ae565b50610160830151612cae610160860182612795565b508091505092915050565b612cc28161309e565b82525050565b6000602082019050612cdd60008301846126ae565b92915050565b6000602082019050612cf8600083018461269f565b92915050565b60006020820190508181036000830152612d188184612718565b905092915050565b6000602082019050612d356000830184612786565b92915050565b60006020820190508181036000830152612d5581846127e9565b905092915050565b60006020820190508181036000830152612d7781846127b3565b905092915050565b60006020820190508181036000830152612d988161281f565b9050919050565b60006020820190508181036000830152612db881612856565b9050919050565b60006020820190508181036000830152612dd8816128b3565b9050919050565b60006020820190508181036000830152612df8816128ea565b9050919050565b60006020820190508181036000830152612e1881612947565b9050919050565b60006020820190508181036000830152612e38816129a4565b9050919050565b60006020820190508181036000830152612e58816129db565b9050919050565b60006020820190508181036000830152612e7881612a38565b9050919050565b60006020820190508181036000830152612e998184612a95565b905092915050565b6000602082019050612eb66000830184612cb9565b92915050565b600061016082019050612ed2600083018e612cb9565b8181036020830152612ee4818d6127e9565b9050612ef3604083018c6126ae565b612f00606083018b612cb9565b612f0d608083018a612cb9565b612f1a60a0830189612cb9565b81810360c0830152612f2c81886127e9565b9050612f3b60e08301876127a4565b612f49610100830186612cb9565b612f576101208301856126ae565b612f65610140830184612795565b9c9b505050505050505050505050565b6000604051905081810181811067ffffffffffffffff82111715612f9857600080fd5b8060405250919050565b600067ffffffffffffffff821115612fb957600080fd5b601f19601f8301169050602081019050919050565b6000602082019050919050565b6000602082019050919050565b600081519050919050565b600081519050919050565b600081519050919050565b600081519050919050565b6000602082019050919050565b6000602082019050919050565b60006130398261307e565b9050919050565b600061304b8261307e565b9050919050565b60008115159050919050565b6000819050919050565b600060038210151561307657fe5b819050919050565b600073ffffffffffffffffffffffffffffffffffffffff82169050919050565b6000819050919050565b60006130b38261307e565b9050919050565b6000819050919050565b60006130cf82613068565b9050919050565b82818337600083830152505050565b60005b838110156131035780820151818401526020810190506130e8565b83811115613112576000848401525b50505050565b6000601f19601f830116905091905056fea265627a7a7230582028e9076e2ec2779dc908f4739ee9029cc5c88158cd34c8e96c098907e02821c66c6578706572696d656e74616cf50037",
  "source": "pragma solidity ^0.5.0;\r\npragma experimental ABIEncoderV2;\r\n\r\n//import \"./SafeMath.sol\";\r\n\r\ncontract PlaceDeMarche{\r\n\r\n   // using SafeMath for uint;\r\n\r\n    // Rcupration de la rputation d'un illustrateur depuis son adresse\r\n    mapping (address => uint) public userToReputation;\r\n\r\n    // Rcupratiion du nom d'un illustrateur depuis son adresse\r\n    mapping (address => string) public userToName;\r\n\r\n    // Voir si l'illustrateur est inscrit\r\n    mapping (address => bool) public users;\r\n\r\n    // Voir si l'illustrateur est blacklist\r\n    mapping (address => bool) public blackList;\r\n\r\n    // adresse du propritaire\r\n    address public owner;\r\n\r\n    // Adresse du porte monnaie cibl\r\n    address payable public wallet;\r\n\r\n    // Liste des entreprises inscrites\r\n    address[] public companies;\r\n\r\n    // Liste des administrateurs\r\n    address[] public admins;\r\n\r\n    // Status de la demande\r\n    enum Status {OUVERTE, ENCOURS, FERMEE}\r\n\r\n    // Structure de demande  crer lors de l'ajout d'une demande\r\n    struct Demande{\r\n        uint id;\r\n        string nomOffre;\r\n        address addressCompany;\r\n        uint remuneration;\r\n        uint depot;\r\n        uint delay;\r\n        string description;\r\n        Status status;\r\n        uint minReputation;\r\n        address[] candidates;\r\n        address illustrateurChoisi;\r\n        bytes32 travail;\r\n    }\r\n\r\n    // Liste des demandes\r\n    Demande[] public demandes;\r\n\r\n    event inscription_illustrateur(string _name);\r\n\r\n    // Initialisation du contrat avec l'ajout de l'owner dans la liste des admins\r\n    constructor() public{\r\n        owner = msg.sender;\r\n        admins.push(owner);\r\n    }\r\n\r\n    function getAdminLength() public view returns (uint){\r\n        return admins.length;\r\n    }\r\n\r\n    function getCompaniesLength() public view returns (uint) {\r\n        return companies.length;\r\n    }\r\n\r\n    // Retourne une demande en particulier\r\n    function getDemande(uint _id) public view returns (Demande memory) {\r\n        return demandes[_id];\r\n    }\r\n\r\n    // Retourne toutes les demandes\r\n    function getAllDemandes() public view returns (Demande[] memory){\r\n        return demandes;\r\n    }\r\n\r\n    // Ajout d'un admin par un admin\r\n    function addAdmin(address newAdmin) onlyAdmin public{\r\n        admins.push(newAdmin);\r\n    }\r\n\r\n    // Inscription d'un illustrateur si il n'est pas dj inscrit + il ne figure pas dans la liste des bannis\r\n    function inscription(string memory _name)  pasInscrit  notBanned public{\r\n        userToReputation[msg.sender] = 1;\r\n        userToName[msg.sender] = _name;\r\n        users[msg.sender] = true;\r\n        emit inscription_illustrateur(_name);\r\n    }\r\n\r\n    // inscription de l'entreprise en vrifiant que l'entreprise ne l'est pas dj\r\n    function inscriptionCompany() companyPasInscrit public {\r\n        companies.push(msg.sender);\r\n    }\r\n\r\n    // Ajout d'une demande en vrifiant que l'entreprise est inscrite\r\n    function ajouterDemande(/*address payable _address,*/ uint _remuneration, uint _delay, string memory _description, uint _minReputation, string memory _nomOffre)  companyInscrit payable public {\r\n        Demande memory demande;\r\n        demande.nomOffre = _nomOffre;\r\n        demande.addressCompany = msg.sender;\r\n        demande.remuneration = _remuneration;//msg.value / (10210**-2);\r\n        demande.depot = msg.value;\r\n        demande.delay = now + _delay;\r\n        demande.description = _description;\r\n        demande.status = Status.OUVERTE;\r\n        demande.minReputation = _minReputation;\r\n        demande.id = demandes.length-1;\r\n        demandes.push(demande);\r\n\r\n}\r\n\r\n    // Illustrateur qui postule en insrant l'id de la demande, en vrifiant si il n'a pas postul + si le status de la demande est OUVERTE + si rputation correspond\r\n    function postuler(uint _idDemande) pasEncorePostule(_idDemande) checkIfOpen(_idDemande) checkReputation(_idDemande) public {\r\n        demandes[_idDemande].candidates.push(msg.sender);\r\n    }\r\n\r\n    // Entreprise accepte l'offre, en vrifiant si l'id de la demande correspond  l'entreprise, si la demande est OUVERTE et si l'illustrateur est dans les candidats\r\n    function accepterOffre(uint _idDemande, address _illustrateur) onlyCompany(_idDemande) checkIfOpen(_idDemande) checkIfIllustrateurInCandidates(_idDemande, _illustrateur) public {\r\n        demandes[_idDemande].illustrateurChoisi = _illustrateur;\r\n        demandes[_idDemande].status = Status.ENCOURS;\r\n        delete demandes[_idDemande].candidates;\r\n\r\n    }\r\n\r\n    // Illustrateur donne l'id de la demande ainsi que l'adresse de son travail en vrifiant si l'illustrateur choisi est bien celui de la demande en question\r\n    function livraison(uint _idDemande, string memory _travail) public payable checkIllustrateurChoisi(_idDemande) {\r\n        address payable illustrateurWallet = msg.sender;\r\n        demandes[_idDemande].travail = keccak256(bytes(_travail));\r\n        demandes[_idDemande].status = Status.FERMEE;\r\n        userToReputation[msg.sender]+=1;\r\n         //Transfert de l'argent : illustrateur rcupre la rmunration associe, et le wallet rcupre les frais de 2%\r\n       // address(this).balance += demandes[_idDemande].remuneration;\r\n      //  this.balance += (demandes[_idDemande].depot - demandes[_idDemande].remuneration);\r\n     //  address(demandes[_idDemande].addressCompany).balance =- demandes[_idDemande].depot;\r\n     //  illustrateurWallet.transfer(demandes[_idDemande].remuneration);\r\n        //wallet.transfer();\r\n\r\n    }\r\n\r\n    // Retard de la demande en vrifiant que le dlais est suprieur  la date du jour\r\n    function retard(uint _idDemande) public checkDelay(_idDemande){\r\n        userToReputation[demandes[_idDemande].illustrateurChoisi]-=1;\r\n    }\r\n\r\n    // Ban d'un illustrateur en vrifiant si c'est l'admin qui fait la requte + si l'illustrateur existe\r\n    function banned(address _illustrateur) onlyAdmin bannable(_illustrateur)  public {\r\n        blackList[_illustrateur] = true;\r\n        userToReputation[_illustrateur] = 0;\r\n    }\r\n\r\n\r\n    /////////////////////////////////////////////////////////////////////////////////////////////////////\r\n    // BOOLEAN RETURN FUNCTIONS FOR MODIFIERS ///////////////////////////////////////////////////////////\r\n    /////////////////////////////////////////////////////////////////////////////////////////////////////\r\n\r\n    // Check si admin\r\n    function isAdmin(address user) public view returns (bool) {\r\n        for (uint i=0; i<admins.length; i++) {\r\n            if(user == admins[i]){\r\n                return true;\r\n            }\r\n        }\r\n        return false;\r\n    }\r\n\r\n    // Check si entreprise est inscrite\r\n    function isCompanyInscrit(address company) public view returns (bool) {\r\n        for (uint i=0; i<companies.length; i++) {\r\n            if(company == companies[i]){\r\n                return true;\r\n            }\r\n        }\r\n        return false;\r\n    }\r\n\r\n    // Check si l'adresse de l'entreprise correspond  l'adresse du sender\r\n    function idDemandeToCompany(uint _idDemande) public view returns (bool) {\r\n        for (uint i=0; i<demandes.length; i++) {\r\n            if(msg.sender == demandes[_idDemande].addressCompany){\r\n                return true;\r\n            }\r\n        }\r\n        return false;\r\n    }\r\n\r\n\r\n    // Check si illustrateur est candidat\r\n    function isInCandidates(uint _idDemande, address _illustrateur)  public view returns (bool) {\r\n        for (uint i=0; i<demandes[_idDemande].candidates.length; i++) {\r\n            if(_illustrateur == demandes[_idDemande].candidates[i]){\r\n                return true;\r\n            }\r\n        }\r\n        return false;\r\n    }\r\n\r\n    // Check si illustrateur est parmi les candidats de la demande (pour la fonction postuler())\r\n    function aDejaPostule(uint _idDemande, address _illustrateur) public view returns (bool) {\r\n        for (uint i=0; i<demandes[_idDemande].candidates.length; i++) {\r\n            if(_illustrateur == demandes[_idDemande].candidates[i]){\r\n                return true;\r\n            }\r\n        }\r\n        return false;\r\n    }\r\n\r\n\r\n    /////////////////////////////////////////////////////////////////////////////////////////////////////\r\n    // MODIFIERS ////////////////////////////////////////////////////////////////////////////////////////\r\n    /////////////////////////////////////////////////////////////////////////////////////////////////////\r\n\r\n    modifier checkReputation(uint _idDemande){\r\n        require(demandes[_idDemande].minReputation <= userToReputation[msg.sender]);\r\n        _;\r\n    }\r\n\r\n    modifier checkIfOpen(uint _idDemande) {\r\n        require(demandes[_idDemande].status == Status.OUVERTE, \"BAH CEST TROP TARD !\");\r\n        _;\r\n    }\r\n\r\n    modifier checkIfIllustrateurInCandidates(uint _idDemande, address _illustrateur){\r\n        require(isInCandidates(_idDemande, _illustrateur));\r\n        _;\r\n    }\r\n\r\n    modifier checkDelay(uint _idDemande){\r\n        require(demandes[_idDemande].delay > now, \"Toujours dans les temps\");\r\n        _;\r\n    }\r\n\r\n    modifier checkIllustrateurChoisi(uint _idDemande){\r\n        require(demandes[_idDemande].illustrateurChoisi == msg.sender);\r\n        _;\r\n    }\r\n\r\n    modifier pasEncorePostule(uint _idDemande){\r\n        require(!aDejaPostule(_idDemande, msg.sender), \"Il a dj postul !\");\r\n        _;\r\n    }\r\n\r\n    modifier pasInscrit(){\r\n        require(users[msg.sender] != true, \"Cet utilisateur est dj inscrit !\");\r\n        _;\r\n    }\r\n\r\n    modifier companyPasInscrit(){\r\n        require(!isCompanyInscrit(msg.sender), \"Votre entreprise est dj inscrite !\");\r\n        _;\r\n    }\r\n\r\n    modifier companyInscrit(){\r\n        require(isCompanyInscrit(msg.sender), \"Votre entreprise n'est pas inscrite !\");\r\n        _;\r\n    }\r\n\r\n    modifier bannable(address _illustrateur){\r\n        require(users[_illustrateur] == true, \"Vous ne pouvez pas ban un type pas inscrit !\");\r\n        _;\r\n    }\r\n\r\n    modifier onlyAdmin(){\r\n        require(isAdmin(msg.sender), \"Vous n'tes pas le propritaire\");\r\n        _;\r\n    }\r\n\r\n    modifier notBanned(){\r\n        require(blackList[msg.sender] != true);\r\n        _;\r\n    }\r\n\r\n    modifier onlyCompany(uint _idDemande){\r\n        require(idDemandeToCompany(_idDemande));\r\n        _;\r\n    }\r\n}\r\n",
  "sourcePath": "C:\\Users\\Fabrice\\Desktop\\Alyra\\Exercices_Alyra\\Defi2\\contracts\\PlaceDeMarche.sol",
  "compiler": {
    "name": "solc",
    "version": "0.5.0+commit.1d4f565a.Emscripten.clang"
  },
  "schemaVersion": "3.1.0",
  "updatedAt": "2020-05-10T21:12:24.908Z",
  "networkType": "ethereum",
  "devdoc": {
    "methods": {}
  },
  "userdoc": {
    "methods": {
      "isAdmin(address)": {
        "notice": "//////////////////////////////////////////////////////////////////////////////////////////////////"
      }
    }
  }
}