{
  "contractName": "PlaceDeMarche",
  "abi": [
    {
      "constant": true,
      "inputs": [
        {
          "name": "",
          "type": "uint256"
        }
      ],
      "name": "admins",
      "outputs": [
        {
          "name": "",
          "type": "address"
        }
      ],
      "payable": false,
      "stateMutability": "view",
      "type": "function"
    },
    {
      "constant": true,
      "inputs": [
        {
          "name": "",
          "type": "uint256"
        }
      ],
      "name": "companies",
      "outputs": [
        {
          "name": "",
          "type": "address"
        }
      ],
      "payable": false,
      "stateMutability": "view",
      "type": "function"
    },
    {
      "constant": true,
      "inputs": [
        {
          "name": "",
          "type": "address"
        }
      ],
      "name": "blackList",
      "outputs": [
        {
          "name": "",
          "type": "bool"
        }
      ],
      "payable": false,
      "stateMutability": "view",
      "type": "function"
    },
    {
      "constant": true,
      "inputs": [],
      "name": "wallet",
      "outputs": [
        {
          "name": "",
          "type": "address"
        }
      ],
      "payable": false,
      "stateMutability": "view",
      "type": "function"
    },
    {
      "constant": true,
      "inputs": [],
      "name": "owner",
      "outputs": [
        {
          "name": "",
          "type": "address"
        }
      ],
      "payable": false,
      "stateMutability": "view",
      "type": "function"
    },
    {
      "constant": true,
      "inputs": [
        {
          "name": "",
          "type": "address"
        }
      ],
      "name": "users",
      "outputs": [
        {
          "name": "",
          "type": "bool"
        }
      ],
      "payable": false,
      "stateMutability": "view",
      "type": "function"
    },
    {
      "constant": true,
      "inputs": [
        {
          "name": "",
          "type": "uint256"
        }
      ],
      "name": "demandes",
      "outputs": [
        {
          "name": "addressCompany",
          "type": "address"
        },
        {
          "name": "remuneration",
          "type": "uint256"
        },
        {
          "name": "depot",
          "type": "uint256"
        },
        {
          "name": "delay",
          "type": "uint256"
        },
        {
          "name": "description",
          "type": "string"
        },
        {
          "name": "status",
          "type": "uint8"
        },
        {
          "name": "minReputation",
          "type": "uint256"
        },
        {
          "name": "illustrateurChoisi",
          "type": "address"
        },
        {
          "name": "travail",
          "type": "address"
        }
      ],
      "payable": false,
      "stateMutability": "view",
      "type": "function"
    },
    {
      "constant": true,
      "inputs": [
        {
          "name": "",
          "type": "address"
        }
      ],
      "name": "userToReputation",
      "outputs": [
        {
          "name": "",
          "type": "uint256"
        }
      ],
      "payable": false,
      "stateMutability": "view",
      "type": "function"
    },
    {
      "constant": true,
      "inputs": [
        {
          "name": "",
          "type": "address"
        }
      ],
      "name": "userToName",
      "outputs": [
        {
          "name": "",
          "type": "string"
        }
      ],
      "payable": false,
      "stateMutability": "view",
      "type": "function"
    },
    {
      "inputs": [],
      "payable": false,
      "stateMutability": "nonpayable",
      "type": "constructor"
    },
    {
      "constant": true,
      "inputs": [],
      "name": "getAdminLength",
      "outputs": [
        {
          "name": "",
          "type": "uint256"
        }
      ],
      "payable": false,
      "stateMutability": "view",
      "type": "function"
    },
    {
      "constant": true,
      "inputs": [],
      "name": "getCompaniesLength",
      "outputs": [
        {
          "name": "",
          "type": "uint256"
        }
      ],
      "payable": false,
      "stateMutability": "view",
      "type": "function"
    },
    {
      "constant": true,
      "inputs": [
        {
          "name": "_id",
          "type": "uint256"
        }
      ],
      "name": "getDemande",
      "outputs": [
        {
          "components": [
            {
              "name": "addressCompany",
              "type": "address"
            },
            {
              "name": "remuneration",
              "type": "uint256"
            },
            {
              "name": "depot",
              "type": "uint256"
            },
            {
              "name": "delay",
              "type": "uint256"
            },
            {
              "name": "description",
              "type": "string"
            },
            {
              "name": "status",
              "type": "uint8"
            },
            {
              "name": "minReputation",
              "type": "uint256"
            },
            {
              "name": "candidates",
              "type": "address[]"
            },
            {
              "name": "illustrateurChoisi",
              "type": "address"
            },
            {
              "name": "travail",
              "type": "address"
            }
          ],
          "name": "",
          "type": "tuple"
        }
      ],
      "payable": false,
      "stateMutability": "view",
      "type": "function"
    },
    {
      "constant": false,
      "inputs": [
        {
          "name": "newAdmin",
          "type": "address"
        }
      ],
      "name": "addAdmin",
      "outputs": [],
      "payable": false,
      "stateMutability": "nonpayable",
      "type": "function"
    },
    {
      "constant": false,
      "inputs": [
        {
          "name": "_name",
          "type": "string"
        }
      ],
      "name": "inscription",
      "outputs": [],
      "payable": false,
      "stateMutability": "nonpayable",
      "type": "function"
    },
    {
      "constant": false,
      "inputs": [],
      "name": "inscriptionCompany",
      "outputs": [],
      "payable": false,
      "stateMutability": "nonpayable",
      "type": "function"
    },
    {
      "constant": false,
      "inputs": [
        {
          "name": "_delay",
          "type": "uint256"
        },
        {
          "name": "_description",
          "type": "string"
        },
        {
          "name": "_minReputation",
          "type": "uint256"
        }
      ],
      "name": "ajouterDemande",
      "outputs": [],
      "payable": true,
      "stateMutability": "payable",
      "type": "function"
    },
    {
      "constant": false,
      "inputs": [
        {
          "name": "_idDemande",
          "type": "uint256"
        }
      ],
      "name": "postuler",
      "outputs": [],
      "payable": false,
      "stateMutability": "nonpayable",
      "type": "function"
    },
    {
      "constant": false,
      "inputs": [
        {
          "name": "_idDemande",
          "type": "uint256"
        },
        {
          "name": "_illustrateur",
          "type": "address"
        }
      ],
      "name": "accepterOffre",
      "outputs": [],
      "payable": false,
      "stateMutability": "nonpayable",
      "type": "function"
    },
    {
      "constant": false,
      "inputs": [
        {
          "name": "_idDemande",
          "type": "uint256"
        },
        {
          "name": "_travail",
          "type": "address"
        }
      ],
      "name": "livraison",
      "outputs": [],
      "payable": false,
      "stateMutability": "nonpayable",
      "type": "function"
    },
    {
      "constant": false,
      "inputs": [
        {
          "name": "_idDemande",
          "type": "uint256"
        }
      ],
      "name": "retard",
      "outputs": [],
      "payable": false,
      "stateMutability": "nonpayable",
      "type": "function"
    },
    {
      "constant": false,
      "inputs": [
        {
          "name": "_illustrateur",
          "type": "address"
        }
      ],
      "name": "banned",
      "outputs": [],
      "payable": false,
      "stateMutability": "nonpayable",
      "type": "function"
    },
    {
      "constant": true,
      "inputs": [
        {
          "name": "user",
          "type": "address"
        }
      ],
      "name": "isAdmin",
      "outputs": [
        {
          "name": "",
          "type": "bool"
        }
      ],
      "payable": false,
      "stateMutability": "view",
      "type": "function"
    },
    {
      "constant": true,
      "inputs": [
        {
          "name": "company",
          "type": "address"
        }
      ],
      "name": "isCompanyInscrit",
      "outputs": [
        {
          "name": "",
          "type": "bool"
        }
      ],
      "payable": false,
      "stateMutability": "view",
      "type": "function"
    },
    {
      "constant": true,
      "inputs": [
        {
          "name": "_idDemande",
          "type": "uint256"
        }
      ],
      "name": "idDemandeToCompany",
      "outputs": [
        {
          "name": "",
          "type": "bool"
        }
      ],
      "payable": false,
      "stateMutability": "view",
      "type": "function"
    },
    {
      "constant": true,
      "inputs": [
        {
          "name": "_idDemande",
          "type": "uint256"
        },
        {
          "name": "_illustrateur",
          "type": "address"
        }
      ],
      "name": "isInCandidates",
      "outputs": [
        {
          "name": "",
          "type": "bool"
        }
      ],
      "payable": false,
      "stateMutability": "view",
      "type": "function"
    },
    {
      "constant": true,
      "inputs": [
        {
          "name": "_idDemande",
          "type": "uint256"
        },
        {
          "name": "_illustrateur",
          "type": "address"
        }
      ],
      "name": "aDejaPostule",
      "outputs": [
        {
          "name": "",
          "type": "bool"
        }
      ],
      "payable": false,
      "stateMutability": "view",
      "type": "function"
    }
  ],
  "bytecode": "0x608060405234801561001057600080fd5b5033600460006101000a81548173ffffffffffffffffffffffffffffffffffffffff021916908373ffffffffffffffffffffffffffffffffffffffff1602179055506007600460009054906101000a900473ffffffffffffffffffffffffffffffffffffffff1690806001815401808255809150509060018203906000526020600020016000909192909190916101000a81548173ffffffffffffffffffffffffffffffffffffffff021916908373ffffffffffffffffffffffffffffffffffffffff16021790555050612ad8806100e96000396000f3fe608060405260043610610154576000357c0100000000000000000000000000000000000000000000000000000000900463ffffffff16806314bfd6d0146101595780631e516e811461019657806324d7806c146101b25780632813d19d146101ef578063297600191461022c5780632a83a428146102435780632ce78fc0146102805780634476cf59146102bd57806345ea43b0146102e65780634838d1651461030f578063521eb2731461034c5780636fbf3f961461037757806370480275146103a057806381d58f79146103c957806382a14a1e146104065780638da5cb5b146104435780639c8d83bb1461046e578063a64dc75a14610497578063a87430ba146104d4578063b27dd66914610511578063b5e2bf2f1461053a578063d67469ce1461057f578063dc89de68146105aa578063e783a5b4146105d5578063ebf71919146105fe578063ec9a2bb01461063b575b600080fd5b34801561016557600080fd5b50610180600480360361017b91908101906121e1565b610678565b60405161018d91906126e0565b60405180910390f35b6101b060048036036101ab9190810190612246565b6106b6565b005b3480156101be57600080fd5b506101d960048036036101d49190810190612177565b610925565b6040516101e691906127aa565b60405180910390f35b3480156101fb57600080fd5b50610216600480360361021191908101906121e1565b6109c9565b60405161022391906126e0565b60405180910390f35b34801561023857600080fd5b50610241610a07565b005b34801561024f57600080fd5b5061026a60048036036102659190810190612177565b610aba565b60405161027791906127aa565b60405180910390f35b34801561028c57600080fd5b506102a760048036036102a291908101906121e1565b610b5e565b6040516102b491906128e7565b60405180910390f35b3480156102c957600080fd5b506102e460048036036102df91908101906121a0565b610e1e565b005b3480156102f257600080fd5b5061030d600480360361030891908101906121e1565b611007565b005b34801561031b57600080fd5b5061033660048036036103319190810190612177565b6111d5565b60405161034391906127aa565b60405180910390f35b34801561035857600080fd5b506103616111f5565b60405161036e91906126fb565b60405180910390f35b34801561038357600080fd5b5061039e6004803603610399919081019061220a565b61121b565b005b3480156103ac57600080fd5b506103c760048036036103c29190810190612177565b61149b565b005b3480156103d557600080fd5b506103f060048036036103eb91908101906121e1565b61154e565b6040516103fd91906127aa565b60405180910390f35b34801561041257600080fd5b5061042d6004803603610428919081019061220a565b6115f9565b60405161043a91906127aa565b60405180910390f35b34801561044f57600080fd5b506104586116da565b60405161046591906126e0565b60405180910390f35b34801561047a57600080fd5b5061049560048036036104909190810190612177565b611700565b005b3480156104a357600080fd5b506104be60048036036104b9919081019061220a565b611880565b6040516104cb91906127aa565b60405180910390f35b3480156104e057600080fd5b506104fb60048036036104f69190810190612177565b611961565b60405161050891906127aa565b60405180910390f35b34801561051d57600080fd5b50610538600480360361053391908101906121e1565b611981565b005b34801561054657600080fd5b50610561600480360361055c91908101906121e1565b611a77565b60405161057699989796959493929190612716565b60405180910390f35b34801561058b57600080fd5b50610594611bd9565b6040516105a19190612909565b60405180910390f35b3480156105b657600080fd5b506105bf611be6565b6040516105cc9190612909565b60405180910390f35b3480156105e157600080fd5b506105fc60048036036105f7919081019061220a565b611bf3565b005b34801561060a57600080fd5b5061062560048036036106209190810190612177565b611d7d565b6040516106329190612909565b60405180910390f35b34801561064757600080fd5b50610662600480360361065d9190810190612177565b611d95565b60405161066f91906127c5565b60405180910390f35b60078181548110151561068757fe5b906000526020600020016000915054906101000a900473ffffffffffffffffffffffffffffffffffffffff1681565b6106bf33610aba565b1515610700576040517f08c379a00000000000000000000000000000000000000000000000000000000081526004016106f790612867565b60405180910390fd5b610708611e45565b33816000019073ffffffffffffffffffffffffffffffffffffffff16908173ffffffffffffffffffffffffffffffffffffffff16815250503481604001818152505083420181606001818152505082816080018190525060008160a00190600281111561077157fe5b9081600281111561077e57fe5b81525050818160c00181815250506008819080600181540180825580915050906001820390600052602060002090600a02016000909192909190915060008201518160000160006101000a81548173ffffffffffffffffffffffffffffffffffffffff021916908373ffffffffffffffffffffffffffffffffffffffff160217905550602082015181600101556040820151816002015560608201518160030155608082015181600401908051906020019061083b929190611ee6565b5060a08201518160050160006101000a81548160ff0219169083600281111561086057fe5b021790555060c0820151816006015560e082015181600701908051906020019061088b929190611f66565b506101008201518160080160006101000a81548173ffffffffffffffffffffffffffffffffffffffff021916908373ffffffffffffffffffffffffffffffffffffffff1602179055506101208201518160090160006101000a81548173ffffffffffffffffffffffffffffffffffffffff021916908373ffffffffffffffffffffffffffffffffffffffff16021790555050505050505050565b600080600090505b6007805490508110156109be5760078181548110151561094957fe5b9060005260206000200160009054906101000a900473ffffffffffffffffffffffffffffffffffffffff1673ffffffffffffffffffffffffffffffffffffffff168373ffffffffffffffffffffffffffffffffffffffff1614156109b15760019150506109c4565b808060010191505061092d565b50600090505b919050565b6006818154811015156109d857fe5b906000526020600020016000915054906101000a900473ffffffffffffffffffffffffffffffffffffffff1681565b610a1033610aba565b151515610a52576040517f08c379a0000000000000000000000000000000000000000000000000000000008152600401610a49906128a7565b60405180910390fd5b60063390806001815401808255809150509060018203906000526020600020016000909192909190916101000a81548173ffffffffffffffffffffffffffffffffffffffff021916908373ffffffffffffffffffffffffffffffffffffffff16021790555050565b600080600090505b600680549050811015610b5357600681815481101515610ade57fe5b9060005260206000200160009054906101000a900473ffffffffffffffffffffffffffffffffffffffff1673ffffffffffffffffffffffffffffffffffffffff168373ffffffffffffffffffffffffffffffffffffffff161415610b46576001915050610b59565b8080600101915050610ac2565b50600090505b919050565b610b66611e45565b600882815481101515610b7557fe5b90600052602060002090600a020161014060405190810160405290816000820160009054906101000a900473ffffffffffffffffffffffffffffffffffffffff1673ffffffffffffffffffffffffffffffffffffffff1673ffffffffffffffffffffffffffffffffffffffff168152602001600182015481526020016002820154815260200160038201548152602001600482018054600181600116156101000203166002900480601f016020809104026020016040519081016040528092919081815260200182805460018160011615610100020316600290048015610c9d5780601f10610c7257610100808354040283529160200191610c9d565b820191906000526020600020905b815481529060010190602001808311610c8057829003601f168201915b505050505081526020016005820160009054906101000a900460ff166002811115610cc457fe5b6002811115610ccf57fe5b81526020016006820154815260200160078201805480602002602001604051908101604052809291908181526020018280548015610d6257602002820191906000526020600020905b8160009054906101000a900473ffffffffffffffffffffffffffffffffffffffff1673ffffffffffffffffffffffffffffffffffffffff1681526020019060010190808311610d18575b505050505081526020016008820160009054906101000a900473ffffffffffffffffffffffffffffffffffffffff1673ffffffffffffffffffffffffffffffffffffffff1673ffffffffffffffffffffffffffffffffffffffff1681526020016009820160009054906101000a900473ffffffffffffffffffffffffffffffffffffffff1673ffffffffffffffffffffffffffffffffffffffff1673ffffffffffffffffffffffffffffffffffffffff16815250509050919050565b60011515600260003373ffffffffffffffffffffffffffffffffffffffff1673ffffffffffffffffffffffffffffffffffffffff16815260200190815260200160002060009054906101000a900460ff16151514151515610eb4576040517f08c379a0000000000000000000000000000000000000000000000000000000008152600401610eab90612807565b60405180910390fd5b60011515600360003373ffffffffffffffffffffffffffffffffffffffff1673ffffffffffffffffffffffffffffffffffffffff16815260200190815260200160002060009054906101000a900460ff16151514151515610f1457600080fd5b60016000803373ffffffffffffffffffffffffffffffffffffffff1673ffffffffffffffffffffffffffffffffffffffff1681526020019081526020016000208190555080600160003373ffffffffffffffffffffffffffffffffffffffff1673ffffffffffffffffffffffffffffffffffffffff1681526020019081526020016000209080519060200190610fab929190611ff0565b506001600260003373ffffffffffffffffffffffffffffffffffffffff1673ffffffffffffffffffffffffffffffffffffffff16815260200190815260200160002060006101000a81548160ff02191690831515021790555050565b806110128133611880565b151515611054576040517f08c379a000000000000000000000000000000000000000000000000000000000815260040161104b906127e7565b60405180910390fd5b816000600281111561106257fe5b60088281548110151561107157fe5b90600052602060002090600a020160050160009054906101000a900460ff16600281111561109b57fe5b1415156110dd576040517f08c379a00000000000000000000000000000000000000000000000000000000081526004016110d490612827565b60405180910390fd5b826000803373ffffffffffffffffffffffffffffffffffffffff1673ffffffffffffffffffffffffffffffffffffffff1681526020019081526020016000205460088281548110151561112c57fe5b90600052602060002090600a0201600601541115151561114b57600080fd5b60088481548110151561115a57fe5b90600052602060002090600a02016007013390806001815401808255809150509060018203906000526020600020016000909192909190916101000a81548173ffffffffffffffffffffffffffffffffffffffff021916908373ffffffffffffffffffffffffffffffffffffffff1602179055505050505050565b60036020528060005260406000206000915054906101000a900460ff1681565b600560009054906101000a900473ffffffffffffffffffffffffffffffffffffffff1681565b813373ffffffffffffffffffffffffffffffffffffffff1660088281548110151561124257fe5b90600052602060002090600a020160080160009054906101000a900473ffffffffffffffffffffffffffffffffffffffff1673ffffffffffffffffffffffffffffffffffffffff1614151561129657600080fd5b816008848154811015156112a657fe5b90600052602060002090600a020160090160006101000a81548173ffffffffffffffffffffffffffffffffffffffff021916908373ffffffffffffffffffffffffffffffffffffffff160217905550600260088481548110151561130657fe5b90600052602060002090600a020160050160006101000a81548160ff0219169083600281111561133257fe5b021790555060016000803373ffffffffffffffffffffffffffffffffffffffff1673ffffffffffffffffffffffffffffffffffffffff168152602001908152602001600020600082825401925050819055503373ffffffffffffffffffffffffffffffffffffffff166108fc6008858154811015156113ad57fe5b90600052602060002090600a0201600101549081150290604051600060405180830381858888f193505050501580156113ea573d6000803e3d6000fd5b50600560009054906101000a900473ffffffffffffffffffffffffffffffffffffffff1673ffffffffffffffffffffffffffffffffffffffff166108fc60088581548110151561143657fe5b90600052602060002090600a02016001015460088681548110151561145757fe5b90600052602060002090600a020160020154039081150290604051600060405180830381858888f19350505050158015611495573d6000803e3d6000fd5b50505050565b6114a433610925565b15156114e5576040517f08c379a00000000000000000000000000000000000000000000000000000000081526004016114dc90612847565b60405180910390fd5b60078190806001815401808255809150509060018203906000526020600020016000909192909190916101000a81548173ffffffffffffffffffffffffffffffffffffffff021916908373ffffffffffffffffffffffffffffffffffffffff1602179055505050565b600080600090505b6008805490508110156115ee5760088381548110151561157257fe5b90600052602060002090600a020160000160009054906101000a900473ffffffffffffffffffffffffffffffffffffffff1673ffffffffffffffffffffffffffffffffffffffff163373ffffffffffffffffffffffffffffffffffffffff1614156115e15760019150506115f4565b8080600101915050611556565b50600090505b919050565b600080600090505b60088481548110151561161057fe5b90600052602060002090600a0201600701805490508110156116ce5760088481548110151561163b57fe5b90600052602060002090600a02016007018181548110151561165957fe5b9060005260206000200160009054906101000a900473ffffffffffffffffffffffffffffffffffffffff1673ffffffffffffffffffffffffffffffffffffffff168373ffffffffffffffffffffffffffffffffffffffff1614156116c15760019150506116d4565b8080600101915050611601565b50600090505b92915050565b600460009054906101000a900473ffffffffffffffffffffffffffffffffffffffff1681565b61170933610925565b151561174a576040517f08c379a000000000000000000000000000000000000000000000000000000000815260040161174190612847565b60405180910390fd5b8060011515600260008373ffffffffffffffffffffffffffffffffffffffff1673ffffffffffffffffffffffffffffffffffffffff16815260200190815260200160002060009054906101000a900460ff1615151415156117e0576040517f08c379a00000000000000000000000000000000000000000000000000000000081526004016117d7906128c7565b60405180910390fd5b6001600360008473ffffffffffffffffffffffffffffffffffffffff1673ffffffffffffffffffffffffffffffffffffffff16815260200190815260200160002060006101000a81548160ff02191690831515021790555060008060008473ffffffffffffffffffffffffffffffffffffffff1673ffffffffffffffffffffffffffffffffffffffff168152602001908152602001600020819055505050565b600080600090505b60088481548110151561189757fe5b90600052602060002090600a020160070180549050811015611955576008848154811015156118c257fe5b90600052602060002090600a0201600701818154811015156118e057fe5b9060005260206000200160009054906101000a900473ffffffffffffffffffffffffffffffffffffffff1673ffffffffffffffffffffffffffffffffffffffff168373ffffffffffffffffffffffffffffffffffffffff16141561194857600191505061195b565b8080600101915050611888565b50600090505b92915050565b60026020528060005260406000206000915054906101000a900460ff1681565b804260088281548110151561199257fe5b90600052602060002090600a0201600301541115156119e6576040517f08c379a00000000000000000000000000000000000000000000000000000000081526004016119dd90612887565b60405180910390fd5b60016000806008858154811015156119fa57fe5b90600052602060002090600a020160080160009054906101000a900473ffffffffffffffffffffffffffffffffffffffff1673ffffffffffffffffffffffffffffffffffffffff1673ffffffffffffffffffffffffffffffffffffffff168152602001908152602001600020600082825403925050819055505050565b600881815481101515611a8657fe5b90600052602060002090600a02016000915090508060000160009054906101000a900473ffffffffffffffffffffffffffffffffffffffff1690806001015490806002015490806003015490806004018054600181600116156101000203166002900480601f016020809104026020016040519081016040528092919081815260200182805460018160011615610100020316600290048015611b6a5780601f10611b3f57610100808354040283529160200191611b6a565b820191906000526020600020905b815481529060010190602001808311611b4d57829003601f168201915b5050505050908060050160009054906101000a900460ff16908060060154908060080160009054906101000a900473ffffffffffffffffffffffffffffffffffffffff16908060090160009054906101000a900473ffffffffffffffffffffffffffffffffffffffff16905089565b6000600780549050905090565b6000600680549050905090565b81611bfd8161154e565b1515611c0857600080fd5b8260006002811115611c1657fe5b600882815481101515611c2557fe5b90600052602060002090600a020160050160009054906101000a900460ff166002811115611c4f57fe5b141515611c91576040517f08c379a0000000000000000000000000000000000000000000000000000000008152600401611c8890612827565b60405180910390fd5b8383611c9d82826115f9565b1515611ca857600080fd5b84600887815481101515611cb857fe5b90600052602060002090600a020160080160006101000a81548173ffffffffffffffffffffffffffffffffffffffff021916908373ffffffffffffffffffffffffffffffffffffffff1602179055506001600887815481101515611d1857fe5b90600052602060002090600a020160050160006101000a81548160ff02191690836002811115611d4457fe5b0217905550600886815481101515611d5857fe5b90600052602060002090600a02016007016000611d759190612070565b505050505050565b60006020528060005260406000206000915090505481565b60016020528060005260406000206000915090508054600181600116156101000203166002900480601f016020809104026020016040519081016040528092919081815260200182805460018160011615610100020316600290048015611e3d5780601f10611e1257610100808354040283529160200191611e3d565b820191906000526020600020905b815481529060010190602001808311611e2057829003601f168201915b505050505081565b61014060405190810160405280600073ffffffffffffffffffffffffffffffffffffffff1681526020016000815260200160008152602001600081526020016060815260200160006002811115611e9857fe5b81526020016000815260200160608152602001600073ffffffffffffffffffffffffffffffffffffffff168152602001600073ffffffffffffffffffffffffffffffffffffffff1681525090565b828054600181600116156101000203166002900490600052602060002090601f016020900481019282601f10611f2757805160ff1916838001178555611f55565b82800160010185558215611f55579182015b82811115611f54578251825591602001919060010190611f39565b5b509050611f629190612091565b5090565b828054828255906000526020600020908101928215611fdf579160200282015b82811115611fde5782518260006101000a81548173ffffffffffffffffffffffffffffffffffffffff021916908373ffffffffffffffffffffffffffffffffffffffff16021790555091602001919060010190611f86565b5b509050611fec91906120b6565b5090565b828054600181600116156101000203166002900490600052602060002090601f016020900481019282601f1061203157805160ff191683800117855561205f565b8280016001018555821561205f579182015b8281111561205e578251825591602001919060010190612043565b5b50905061206c9190612091565b5090565b508054600082559060005260206000209081019061208e9190612091565b50565b6120b391905b808211156120af576000816000905550600101612097565b5090565b90565b6120f691905b808211156120f257600081816101000a81549073ffffffffffffffffffffffffffffffffffffffff0219169055506001016120bc565b5090565b90565b60006121058235612a1d565b905092915050565b600082601f830112151561212057600080fd5b813561213361212e82612951565b612924565b9150808252602083016020830185838301111561214f57600080fd5b61215a838284612a4b565b50505092915050565b600061216f8235612a2f565b905092915050565b60006020828403121561218957600080fd5b6000612197848285016120f9565b91505092915050565b6000602082840312156121b257600080fd5b600082013567ffffffffffffffff8111156121cc57600080fd5b6121d88482850161210d565b91505092915050565b6000602082840312156121f357600080fd5b600061220184828501612163565b91505092915050565b6000806040838503121561221d57600080fd5b600061222b85828601612163565b925050602061223c858286016120f9565b9150509250929050565b60008060006060848603121561225b57600080fd5b600061226986828701612163565b935050602084013567ffffffffffffffff81111561228657600080fd5b6122928682870161210d565b92505060406122a386828701612163565b9150509250925092565b6122b6816129bf565b82525050565b6122c5816129ad565b82525050565b60006122d68261298a565b8084526020840193506122e88361297d565b60005b8281101561231a576122fe8683516122bc565b612307826129a0565b91506020860195506001810190506122eb565b50849250505092915050565b61232f816129d1565b82525050565b61233e81612a39565b82525050565b600061234f82612995565b808452612363816020860160208601612a5a565b61236c81612a8d565b602085010191505092915050565b6000601682527f496c20612064c3a96ac3a020706f7374756cc3a92021000000000000000000006020830152604082019050919050565b6000602482527f436574207574696c69736174657572206573742064c3a96ac3a020696e73637260208301527f69742021000000000000000000000000000000000000000000000000000000006040830152606082019050919050565b6000601482527f42414820434553542054524f50205441524420210000000000000000000000006020830152604082019050919050565b6000602182527f566f7573206e27c3aa74657320706173206c652070726f707269c3a97461697260208301527f65000000000000000000000000000000000000000000000000000000000000006040830152606082019050919050565b6000602582527f566f74726520656e7472657072697365206e276573742070617320696e73637260208301527f69746520210000000000000000000000000000000000000000000000000000006040830152606082019050919050565b6000601782527f546f756a6f7572732064616e73206c65732074656d70730000000000000000006020830152604082019050919050565b6000602682527f566f74726520656e7472657072697365206573742064c3a96ac3a020696e736360208301527f72697465202100000000000000000000000000000000000000000000000000006040830152606082019050919050565b6000602c82527f566f7573206e6520706f7576657a207061732062616e20756e2074797065207060208301527f617320696e7363726974202100000000000000000000000000000000000000006040830152606082019050919050565b60006101408301600083015161260960008601826122bc565b50602083015161261c60208601826126d1565b50604083015161262f60408601826126d1565b50606083015161264260608601826126d1565b506080830151848203608086015261265a8282612344565b91505060a083015161266f60a0860182612335565b5060c083015161268260c08601826126d1565b5060e083015184820360e086015261269a82826122cb565b9150506101008301516126b16101008601826122bc565b506101208301516126c66101208601826122bc565b508091505092915050565b6126da81612a13565b82525050565b60006020820190506126f560008301846122bc565b92915050565b600060208201905061271060008301846122ad565b92915050565b60006101208201905061272c600083018c6122bc565b612739602083018b6126d1565b612746604083018a6126d1565b61275360608301896126d1565b81810360808301526127658188612344565b905061277460a0830187612335565b61278160c08301866126d1565b61278e60e08301856122bc565b61279c6101008301846122bc565b9a9950505050505050505050565b60006020820190506127bf6000830184612326565b92915050565b600060208201905081810360008301526127df8184612344565b905092915050565b600060208201905081810360008301526128008161237a565b9050919050565b60006020820190508181036000830152612820816123b1565b9050919050565b600060208201905081810360008301526128408161240e565b9050919050565b6000602082019050818103600083015261286081612445565b9050919050565b60006020820190508181036000830152612880816124a2565b9050919050565b600060208201905081810360008301526128a0816124ff565b9050919050565b600060208201905081810360008301526128c081612536565b9050919050565b600060208201905081810360008301526128e081612593565b9050919050565b6000602082019050818103600083015261290181846125f0565b905092915050565b600060208201905061291e60008301846126d1565b92915050565b6000604051905081810181811067ffffffffffffffff8211171561294757600080fd5b8060405250919050565b600067ffffffffffffffff82111561296857600080fd5b601f19601f8301169050602081019050919050565b6000602082019050919050565b600081519050919050565b600081519050919050565b6000602082019050919050565b60006129b8826129f3565b9050919050565b60006129ca826129f3565b9050919050565b60008115159050919050565b60006003821015156129eb57fe5b819050919050565b600073ffffffffffffffffffffffffffffffffffffffff82169050919050565b6000819050919050565b6000612a28826129f3565b9050919050565b6000819050919050565b6000612a44826129dd565b9050919050565b82818337600083830152505050565b60005b83811015612a78578082015181840152602081019050612a5d565b83811115612a87576000848401525b50505050565b6000601f19601f830116905091905056fea265627a7a7230582096708235b5cc31e2ddc5d93f330d59a7a20618668da4d1717063444c8d4924266c6578706572696d656e74616cf50037",
  "source": "pragma solidity ^0.5.0;\r\npragma experimental ABIEncoderV2;\r\n\r\n//import \"./SafeMath.sol\";\r\n\r\ncontract PlaceDeMarche{\r\n\r\n   // using SafeMath for uint;\r\n\r\n    // Rcupration de la rputation d'un illustrateur depuis son adresse\r\n    mapping (address => uint) public userToReputation;\r\n\r\n    // Rcupratiion du nom d'un illustrateur depuis son adresse\r\n    mapping (address => string) public userToName;\r\n\r\n    // Voir si l'illustrateur est inscrit\r\n    mapping (address => bool) public users;\r\n\r\n    // Voir si l'illustrateur est blacklist\r\n    mapping (address => bool) public blackList;\r\n\r\n    // adresse du propritaire\r\n    address public owner;\r\n\r\n    // Adresse du porte monnaie cibl\r\n    address payable public wallet;\r\n\r\n    // Liste des entreprises inscrites\r\n    address[] public companies;\r\n\r\n    // Liste des administrateurs\r\n    address[] public admins;\r\n\r\n    // Status de la demande\r\n    enum Status {OUVERTE, ENCOURS, FERMEE}\r\n\r\n    // Structure de demande  crer lors de l'ajout d'une demande\r\n    struct Demande{\r\n        address addressCompany;\r\n        uint remuneration;\r\n        uint depot;\r\n        uint delay;\r\n        string description;\r\n        Status status;\r\n        uint minReputation;\r\n        address[] candidates;\r\n        address illustrateurChoisi;\r\n        address travail;\r\n    }\r\n\r\n    // Liste des demandes\r\n    Demande[] public demandes;\r\n\r\n    // Initialisation du contrat avec l'ajout de l'owner dans la liste des admins\r\n    constructor() public{\r\n        owner = msg.sender;\r\n        admins.push(owner);\r\n    }\r\n\r\n    /*  function getUserToReputation(address _user) public returns (uint) {\r\n          return userToReputation[_user];\r\n      }\r\n\r\n      function getUserToName(address _user) public returns (string memory){\r\n          return userToName[_user];\r\n      }\r\n\r\n      function getUserSubscribe(address _user) public returns (bool){\r\n          return users[_user];\r\n      }\r\n\r\n      function getUserFromBlacklist(address _user) public returns (bool){\r\n          return blackList[_user];\r\n      }*/\r\n\r\n\r\n    function getAdminLength() public view returns (uint){\r\n        return admins.length;\r\n    }\r\n\r\n    function getCompaniesLength() public view returns (uint) {\r\n        return companies.length;\r\n    }\r\n\r\n    function getDemande(uint _id) public view returns (Demande memory) {\r\n        return demandes[_id];\r\n    }\r\n\r\n    // Ajout d'un admin par un admin\r\n    function addAdmin(address newAdmin) onlyAdmin public{\r\n        admins.push(newAdmin);\r\n    }\r\n\r\n    // Inscription d'un illustrateur si il n'est pas dj inscrit + il ne figure pas dans la liste des bannis\r\n    function inscription(string memory _name)  pasInscrit  notBanned public{\r\n        userToReputation[msg.sender] = 1;\r\n        userToName[msg.sender] = _name;\r\n        users[msg.sender] = true;\r\n    }\r\n\r\n    // inscription de l'entreprise en vrifiant que l'entreprise ne l'est pas dj\r\n    function inscriptionCompany() companyPasInscrit public {\r\n        companies.push(msg.sender);\r\n    }\r\n\r\n    // Ajout d'une demande en vrifiant que l'entreprise est inscrite\r\n    function ajouterDemande(/*address payable _address, /*uint _remuneration,*/ uint _delay, string memory _description, uint _minReputation)  companyInscrit payable public {\r\n        Demande memory demande;\r\n        demande.addressCompany = msg.sender;\r\n        // demande.remuneration =  msg.value / (102*10**-2);\r\n        demande.depot = msg.value;\r\n        demande.delay = now + _delay;\r\n        demande.description = _description;\r\n        demande.status = Status.OUVERTE;\r\n        demande.minReputation = _minReputation;\r\n        demandes.push(demande);\r\n    }\r\n\r\n    // Illustrateur qui postule en insrant l'id de la demande, en vrifiant si il n'a pas postul + si le status de la demande est OUVERTE + si rputation correspond\r\n    function postuler(uint _idDemande) pasEncorePostule(_idDemande) checkIfOpen(_idDemande) checkReputation(_idDemande) public {\r\n        demandes[_idDemande].candidates.push(msg.sender);\r\n    }\r\n\r\n    // Entreprise accepte l'offre, en vrifiant si l'id de la demande correspond  l'entreprise, si la demande est OUVERTE et si l'illustrateur est dans les candidats\r\n    function accepterOffre(uint _idDemande, address _illustrateur) onlyCompany(_idDemande) checkIfOpen(_idDemande) checkIfIllustrateurInCandidates(_idDemande, _illustrateur) public {\r\n        demandes[_idDemande].illustrateurChoisi = _illustrateur;\r\n        demandes[_idDemande].status = Status.ENCOURS;\r\n        delete demandes[_idDemande].candidates;\r\n\r\n    }\r\n\r\n    // Illustrateur donne l'id de la demande ainsi que l'adresse de son travail en vrifiant si l'illustrateur choisi est bien celui de la demande en question\r\n    function livraison(uint _idDemande, address _travail) public checkIllustrateurChoisi(_idDemande) {\r\n        demandes[_idDemande].travail = _travail;\r\n        demandes[_idDemande].status = Status.FERMEE;\r\n        userToReputation[msg.sender]+=1;\r\n        // Transfert de l'argent : illustrateur rcupre la rmunration associe, et le wallet rcupre les frais de 2%\r\n        msg.sender.transfer(demandes[_idDemande].remuneration);\r\n        wallet.transfer(demandes[_idDemande].depot - demandes[_idDemande].remuneration);\r\n\r\n    }\r\n\r\n    // Retard de la demande en vrifiant que le dlais est suprieur  la date du jour\r\n    function retard(uint _idDemande) public checkDelay(_idDemande){\r\n        userToReputation[demandes[_idDemande].illustrateurChoisi]-=1;\r\n    }\r\n\r\n    // Ban d'un illustrateur en vrifiant si c'est l'admin qui fait la requte + si l'illustrateur existe\r\n    function banned(address _illustrateur) onlyAdmin bannable(_illustrateur)  public {\r\n        blackList[_illustrateur] = true;\r\n        userToReputation[_illustrateur] = 0;\r\n    }\r\n\r\n\r\n    /////////////////////////////////////////////////////////////////////////////////////////////////////\r\n    // BOOLEAN RETURN FUNCTIONS FOR MODIFIERS ///////////////////////////////////////////////////////////\r\n    /////////////////////////////////////////////////////////////////////////////////////////////////////\r\n\r\n    // Check si admin\r\n    function isAdmin(address user) public view returns (bool) {\r\n        for (uint i=0; i<admins.length; i++) {\r\n            if(user == admins[i]){\r\n                return true;\r\n            }\r\n        }\r\n        return false;\r\n    }\r\n\r\n    // Check si entreprise est inscrite\r\n    function isCompanyInscrit(address company) public view returns (bool) {\r\n        for (uint i=0; i<companies.length; i++) {\r\n            if(company == companies[i]){\r\n                return true;\r\n            }\r\n        }\r\n        return false;\r\n    }\r\n\r\n    // Check si l'adresse de l'entreprise correspond  l'adresse du sender\r\n    function idDemandeToCompany(uint _idDemande) public view returns (bool) {\r\n        for (uint i=0; i<demandes.length; i++) {\r\n            if(msg.sender == demandes[_idDemande].addressCompany){\r\n                return true;\r\n            }\r\n        }\r\n        return false;\r\n    }\r\n\r\n\r\n    // Check si illustrateur est candidat\r\n    function isInCandidates(uint _idDemande, address _illustrateur)  public view returns (bool) {\r\n        for (uint i=0; i<demandes[_idDemande].candidates.length; i++) {\r\n            if(_illustrateur == demandes[_idDemande].candidates[i]){\r\n                return true;\r\n            }\r\n        }\r\n        return false;\r\n    }\r\n\r\n    // Check si illustrateur est parmi les candidats de la demande (pour la fonction postuler())\r\n    function aDejaPostule(uint _idDemande, address _illustrateur) public view returns (bool) {\r\n        for (uint i=0; i<demandes[_idDemande].candidates.length; i++) {\r\n            if(_illustrateur == demandes[_idDemande].candidates[i]){\r\n                return true;\r\n            }\r\n        }\r\n        return false;\r\n    }\r\n\r\n\r\n    /////////////////////////////////////////////////////////////////////////////////////////////////////\r\n    // MODIFIERS ////////////////////////////////////////////////////////////////////////////////////////\r\n    /////////////////////////////////////////////////////////////////////////////////////////////////////\r\n\r\n    modifier checkReputation(uint _idDemande){\r\n        require(demandes[_idDemande].minReputation <= userToReputation[msg.sender]);\r\n        _;\r\n    }\r\n\r\n    modifier checkIfOpen(uint _idDemande) {\r\n        require(demandes[_idDemande].status == Status.OUVERTE, \"BAH CEST TROP TARD !\");\r\n        _;\r\n    }\r\n\r\n    modifier checkIfIllustrateurInCandidates(uint _idDemande, address _illustrateur){\r\n        require(isInCandidates(_idDemande, _illustrateur));\r\n        _;\r\n    }\r\n\r\n    modifier checkDelay(uint _idDemande){\r\n        require(demandes[_idDemande].delay > now, \"Toujours dans les temps\");\r\n        _;\r\n    }\r\n\r\n    modifier checkIllustrateurChoisi(uint _idDemande){\r\n        require(demandes[_idDemande].illustrateurChoisi == msg.sender);\r\n        _;\r\n    }\r\n\r\n    modifier pasEncorePostule(uint _idDemande){\r\n        require(!aDejaPostule(_idDemande, msg.sender), \"Il a dj postul !\");\r\n        _;\r\n    }\r\n\r\n    modifier pasInscrit(){\r\n        require(users[msg.sender] != true, \"Cet utilisateur est dj inscrit !\");\r\n        _;\r\n    }\r\n\r\n    modifier companyPasInscrit(){\r\n        require(!isCompanyInscrit(msg.sender), \"Votre entreprise est dj inscrite !\");\r\n        _;\r\n    }\r\n\r\n    modifier companyInscrit(){\r\n        require(isCompanyInscrit(msg.sender), \"Votre entreprise n'est pas inscrite !\");\r\n        _;\r\n    }\r\n\r\n    modifier bannable(address _illustrateur){\r\n        require(users[_illustrateur] == true, \"Vous ne pouvez pas ban un type pas inscrit !\");\r\n        _;\r\n    }\r\n\r\n    modifier onlyAdmin(){\r\n        require(isAdmin(msg.sender), \"Vous n'tes pas le propritaire\");\r\n        _;\r\n    }\r\n\r\n    modifier notBanned(){\r\n        require(blackList[msg.sender] != true);\r\n        _;\r\n    }\r\n\r\n    modifier onlyCompany(uint _idDemande){\r\n        require(idDemandeToCompany(_idDemande));\r\n        _;\r\n    }\r\n}\r\n",
  "sourcePath": "C:\\Users\\Fabrice\\Desktop\\Alyra\\Exercices_Alyra\\Defi2\\contracts\\PlaceDeMarche.sol",
  "compiler": {
    "name": "solc",
    "version": "0.5.0+commit.1d4f565a.Emscripten.clang"
  },
  "schemaVersion": "3.1.0",
  "updatedAt": "2020-05-08T09:48:38.353Z",
  "networkType": "ethereum",
  "devdoc": {
    "methods": {}
  },
  "userdoc": {
    "methods": {
      "isAdmin(address)": {
        "notice": "//////////////////////////////////////////////////////////////////////////////////////////////////"
      }
    }
  }
}