{
  "contractName": "PlaceDeMarche",
  "abi": [
    {
      "constant": true,
      "inputs": [
        {
          "name": "",
          "type": "uint256"
        }
      ],
      "name": "admins",
      "outputs": [
        {
          "name": "",
          "type": "address"
        }
      ],
      "payable": false,
      "stateMutability": "view",
      "type": "function"
    },
    {
      "constant": true,
      "inputs": [
        {
          "name": "",
          "type": "uint256"
        }
      ],
      "name": "companies",
      "outputs": [
        {
          "name": "",
          "type": "address"
        }
      ],
      "payable": false,
      "stateMutability": "view",
      "type": "function"
    },
    {
      "constant": true,
      "inputs": [
        {
          "name": "",
          "type": "address"
        }
      ],
      "name": "blackList",
      "outputs": [
        {
          "name": "",
          "type": "bool"
        }
      ],
      "payable": false,
      "stateMutability": "view",
      "type": "function"
    },
    {
      "constant": true,
      "inputs": [],
      "name": "wallet",
      "outputs": [
        {
          "name": "",
          "type": "address"
        }
      ],
      "payable": false,
      "stateMutability": "view",
      "type": "function"
    },
    {
      "constant": true,
      "inputs": [],
      "name": "owner",
      "outputs": [
        {
          "name": "",
          "type": "address"
        }
      ],
      "payable": false,
      "stateMutability": "view",
      "type": "function"
    },
    {
      "constant": true,
      "inputs": [
        {
          "name": "",
          "type": "address"
        }
      ],
      "name": "users",
      "outputs": [
        {
          "name": "",
          "type": "bool"
        }
      ],
      "payable": false,
      "stateMutability": "view",
      "type": "function"
    },
    {
      "constant": true,
      "inputs": [
        {
          "name": "",
          "type": "uint256"
        }
      ],
      "name": "demandes",
      "outputs": [
        {
          "name": "id",
          "type": "uint256"
        },
        {
          "name": "nomOffre",
          "type": "string"
        },
        {
          "name": "addressCompany",
          "type": "address"
        },
        {
          "name": "remuneration",
          "type": "uint256"
        },
        {
          "name": "depot",
          "type": "uint256"
        },
        {
          "name": "delay",
          "type": "uint256"
        },
        {
          "name": "description",
          "type": "string"
        },
        {
          "name": "status",
          "type": "uint8"
        },
        {
          "name": "minReputation",
          "type": "uint256"
        },
        {
          "name": "illustrateurChoisi",
          "type": "address"
        },
        {
          "name": "travail",
          "type": "bytes32"
        }
      ],
      "payable": false,
      "stateMutability": "view",
      "type": "function"
    },
    {
      "constant": true,
      "inputs": [
        {
          "name": "",
          "type": "address"
        }
      ],
      "name": "userToReputation",
      "outputs": [
        {
          "name": "",
          "type": "uint256"
        }
      ],
      "payable": false,
      "stateMutability": "view",
      "type": "function"
    },
    {
      "constant": true,
      "inputs": [
        {
          "name": "",
          "type": "address"
        }
      ],
      "name": "userToName",
      "outputs": [
        {
          "name": "",
          "type": "string"
        }
      ],
      "payable": false,
      "stateMutability": "view",
      "type": "function"
    },
    {
      "inputs": [],
      "payable": false,
      "stateMutability": "nonpayable",
      "type": "constructor"
    },
    {
      "constant": true,
      "inputs": [
        {
          "name": "user",
          "type": "address"
        }
      ],
      "name": "isAdmin",
      "outputs": [
        {
          "name": "",
          "type": "bool"
        }
      ],
      "payable": false,
      "stateMutability": "view",
      "type": "function"
    },
    {
      "constant": true,
      "inputs": [
        {
          "name": "company",
          "type": "address"
        }
      ],
      "name": "isCompanyInscrit",
      "outputs": [
        {
          "name": "",
          "type": "bool"
        }
      ],
      "payable": false,
      "stateMutability": "view",
      "type": "function"
    },
    {
      "constant": true,
      "inputs": [
        {
          "name": "_idDemande",
          "type": "uint256"
        }
      ],
      "name": "idDemandeToCompany",
      "outputs": [
        {
          "name": "",
          "type": "bool"
        }
      ],
      "payable": false,
      "stateMutability": "view",
      "type": "function"
    },
    {
      "constant": true,
      "inputs": [
        {
          "name": "_idDemande",
          "type": "uint256"
        },
        {
          "name": "_illustrateur",
          "type": "address"
        }
      ],
      "name": "isInCandidates",
      "outputs": [
        {
          "name": "",
          "type": "bool"
        }
      ],
      "payable": false,
      "stateMutability": "view",
      "type": "function"
    },
    {
      "constant": true,
      "inputs": [
        {
          "name": "_idDemande",
          "type": "uint256"
        },
        {
          "name": "_illustrateur",
          "type": "address"
        }
      ],
      "name": "aDejaPostule",
      "outputs": [
        {
          "name": "",
          "type": "bool"
        }
      ],
      "payable": false,
      "stateMutability": "view",
      "type": "function"
    },
    {
      "constant": true,
      "inputs": [],
      "name": "getAdminLength",
      "outputs": [
        {
          "name": "",
          "type": "uint256"
        }
      ],
      "payable": false,
      "stateMutability": "view",
      "type": "function"
    },
    {
      "constant": true,
      "inputs": [],
      "name": "getCompaniesLength",
      "outputs": [
        {
          "name": "",
          "type": "uint256"
        }
      ],
      "payable": false,
      "stateMutability": "view",
      "type": "function"
    },
    {
      "constant": true,
      "inputs": [
        {
          "name": "_id",
          "type": "uint256"
        }
      ],
      "name": "getDemande",
      "outputs": [
        {
          "components": [
            {
              "name": "id",
              "type": "uint256"
            },
            {
              "name": "nomOffre",
              "type": "string"
            },
            {
              "name": "addressCompany",
              "type": "address"
            },
            {
              "name": "remuneration",
              "type": "uint256"
            },
            {
              "name": "depot",
              "type": "uint256"
            },
            {
              "name": "delay",
              "type": "uint256"
            },
            {
              "name": "description",
              "type": "string"
            },
            {
              "name": "status",
              "type": "uint8"
            },
            {
              "name": "minReputation",
              "type": "uint256"
            },
            {
              "name": "candidates",
              "type": "address[]"
            },
            {
              "name": "illustrateurChoisi",
              "type": "address"
            },
            {
              "name": "travail",
              "type": "bytes32"
            }
          ],
          "name": "",
          "type": "tuple"
        }
      ],
      "payable": false,
      "stateMutability": "view",
      "type": "function"
    },
    {
      "constant": true,
      "inputs": [],
      "name": "getAllDemandes",
      "outputs": [
        {
          "components": [
            {
              "name": "id",
              "type": "uint256"
            },
            {
              "name": "nomOffre",
              "type": "string"
            },
            {
              "name": "addressCompany",
              "type": "address"
            },
            {
              "name": "remuneration",
              "type": "uint256"
            },
            {
              "name": "depot",
              "type": "uint256"
            },
            {
              "name": "delay",
              "type": "uint256"
            },
            {
              "name": "description",
              "type": "string"
            },
            {
              "name": "status",
              "type": "uint8"
            },
            {
              "name": "minReputation",
              "type": "uint256"
            },
            {
              "name": "candidates",
              "type": "address[]"
            },
            {
              "name": "illustrateurChoisi",
              "type": "address"
            },
            {
              "name": "travail",
              "type": "bytes32"
            }
          ],
          "name": "",
          "type": "tuple[]"
        }
      ],
      "payable": false,
      "stateMutability": "view",
      "type": "function"
    },
    {
      "constant": false,
      "inputs": [
        {
          "name": "newAdmin",
          "type": "address"
        }
      ],
      "name": "addAdmin",
      "outputs": [],
      "payable": false,
      "stateMutability": "nonpayable",
      "type": "function"
    },
    {
      "constant": false,
      "inputs": [
        {
          "name": "_name",
          "type": "string"
        }
      ],
      "name": "inscription",
      "outputs": [],
      "payable": false,
      "stateMutability": "nonpayable",
      "type": "function"
    },
    {
      "constant": false,
      "inputs": [],
      "name": "inscriptionCompany",
      "outputs": [],
      "payable": false,
      "stateMutability": "nonpayable",
      "type": "function"
    },
    {
      "constant": false,
      "inputs": [
        {
          "name": "_remuneration",
          "type": "uint256"
        },
        {
          "name": "_delay",
          "type": "uint256"
        },
        {
          "name": "_description",
          "type": "string"
        },
        {
          "name": "_minReputation",
          "type": "uint256"
        },
        {
          "name": "_nomOffre",
          "type": "string"
        }
      ],
      "name": "ajouterDemande",
      "outputs": [],
      "payable": true,
      "stateMutability": "payable",
      "type": "function"
    },
    {
      "constant": false,
      "inputs": [
        {
          "name": "_idDemande",
          "type": "uint256"
        }
      ],
      "name": "postuler",
      "outputs": [],
      "payable": false,
      "stateMutability": "nonpayable",
      "type": "function"
    },
    {
      "constant": false,
      "inputs": [
        {
          "name": "_idDemande",
          "type": "uint256"
        },
        {
          "name": "_illustrateur",
          "type": "address"
        }
      ],
      "name": "accepterOffre",
      "outputs": [],
      "payable": false,
      "stateMutability": "nonpayable",
      "type": "function"
    },
    {
      "constant": false,
      "inputs": [
        {
          "name": "_idDemande",
          "type": "uint256"
        },
        {
          "name": "_travail",
          "type": "string"
        }
      ],
      "name": "livraison",
      "outputs": [],
      "payable": false,
      "stateMutability": "nonpayable",
      "type": "function"
    },
    {
      "constant": false,
      "inputs": [
        {
          "name": "_idDemande",
          "type": "uint256"
        }
      ],
      "name": "retard",
      "outputs": [],
      "payable": false,
      "stateMutability": "nonpayable",
      "type": "function"
    },
    {
      "constant": false,
      "inputs": [
        {
          "name": "_illustrateur",
          "type": "address"
        }
      ],
      "name": "banned",
      "outputs": [],
      "payable": false,
      "stateMutability": "nonpayable",
      "type": "function"
    }
  ],
  "bytecode": "0x608060405234801561001057600080fd5b5033600460006101000a81548173ffffffffffffffffffffffffffffffffffffffff021916908373ffffffffffffffffffffffffffffffffffffffff1602179055506007600460009054906101000a900473ffffffffffffffffffffffffffffffffffffffff1690806001815401808255809150509060018203906000526020600020016000909192909190916101000a81548173ffffffffffffffffffffffffffffffffffffffff021916908373ffffffffffffffffffffffffffffffffffffffff16021790555050613137806100e96000396000f3fe60806040526004361061015f576000357c0100000000000000000000000000000000000000000000000000000000900463ffffffff16806314bfd6d01461016457806324d7806c146101a15780632813d19d146101de578063297600191461021b5780632a83a428146102325780632ce78fc01461026f5780634476cf59146102ac57806345ea43b0146102d55780634838d165146102fe578063521eb2731461033b5780637048027514610366578063798519d11461038f57806381d58f79146103b857806382a14a1e146103f55780638da5cb5b146104325780639c8d83bb1461045d578063a64dc75a14610486578063a87430ba146104c3578063afbe9e2314610500578063b27dd6691461051c578063b5e2bf2f14610545578063d67469ce1461058c578063dc89de68146105b7578063e783a5b4146105e2578063ebf719191461060b578063ec9a2bb014610648578063fff8d16114610685575b600080fd5b34801561017057600080fd5b5061018b60048036036101869190810190612576565b6106b0565b6040516101989190612cc9565b60405180910390f35b3480156101ad57600080fd5b506101c860048036036101c3919081019061250c565b6106ee565b6040516101d59190612d21565b60405180910390f35b3480156101ea57600080fd5b5061020560048036036102009190810190612576565b610792565b6040516102129190612cc9565b60405180910390f35b34801561022757600080fd5b506102306107d0565b005b34801561023e57600080fd5b506102596004803603610254919081019061250c565b610883565b6040516102669190612d21565b60405180910390f35b34801561027b57600080fd5b5061029660048036036102919190810190612576565b610927565b6040516102a39190612e5e565b60405180910390f35b3480156102b857600080fd5b506102d360048036036102ce9190810190612535565b610c47565b005b3480156102e157600080fd5b506102fc60048036036102f79190810190612576565b610e30565b005b34801561030a57600080fd5b506103256004803603610320919081019061250c565b610ffe565b6040516103329190612d21565b60405180910390f35b34801561034757600080fd5b5061035061101e565b60405161035d9190612ce4565b60405180910390f35b34801561037257600080fd5b5061038d6004803603610388919081019061250c565b611044565b005b34801561039b57600080fd5b506103b660048036036103b191908101906125db565b6110f7565b005b3480156103c457600080fd5b506103df60048036036103da9190810190612576565b611299565b6040516103ec9190612d21565b60405180910390f35b34801561040157600080fd5b5061041c6004803603610417919081019061259f565b611344565b6040516104299190612d21565b60405180910390f35b34801561043e57600080fd5b50610447611425565b6040516104549190612cc9565b60405180910390f35b34801561046957600080fd5b50610484600480360361047f919081019061250c565b61144b565b005b34801561049257600080fd5b506104ad60048036036104a8919081019061259f565b6115cb565b6040516104ba9190612d21565b60405180910390f35b3480156104cf57600080fd5b506104ea60048036036104e5919081019061250c565b6116ac565b6040516104f79190612d21565b60405180910390f35b61051a6004803603610515919081019061262f565b6116cc565b005b34801561052857600080fd5b50610543600480360361053e9190810190612576565b61194f565b005b34801561055157600080fd5b5061056c60048036036105679190810190612576565b611a45565b6040516105839b9a99989796959493929190612e9b565b60405180910390f35b34801561059857600080fd5b506105a1611c2b565b6040516105ae9190612e80565b60405180910390f35b3480156105c357600080fd5b506105cc611c38565b6040516105d99190612e80565b60405180910390f35b3480156105ee57600080fd5b506106096004803603610604919081019061259f565b611c45565b005b34801561061757600080fd5b50610632600480360361062d919081019061250c565b611dcf565b60405161063f9190612e80565b60405180910390f35b34801561065457600080fd5b5061066f600480360361066a919081019061250c565b611de7565b60405161067c9190612d3c565b60405180910390f35b34801561069157600080fd5b5061069a611e97565b6040516106a79190612cff565b60405180910390f35b6007818154811015156106bf57fe5b906000526020600020016000915054906101000a900473ffffffffffffffffffffffffffffffffffffffff1681565b600080600090505b6007805490508110156107875760078181548110151561071257fe5b9060005260206000200160009054906101000a900473ffffffffffffffffffffffffffffffffffffffff1673ffffffffffffffffffffffffffffffffffffffff168373ffffffffffffffffffffffffffffffffffffffff16141561077a57600191505061078d565b80806001019150506106f6565b50600090505b919050565b6006818154811015156107a157fe5b906000526020600020016000915054906101000a900473ffffffffffffffffffffffffffffffffffffffff1681565b6107d933610883565b15151561081b576040517f08c379a000000000000000000000000000000000000000000000000000000000815260040161081290612e1e565b60405180910390fd5b60063390806001815401808255809150509060018203906000526020600020016000909192909190916101000a81548173ffffffffffffffffffffffffffffffffffffffff021916908373ffffffffffffffffffffffffffffffffffffffff16021790555050565b600080600090505b60068054905081101561091c576006818154811015156108a757fe5b9060005260206000200160009054906101000a900473ffffffffffffffffffffffffffffffffffffffff1673ffffffffffffffffffffffffffffffffffffffff168373ffffffffffffffffffffffffffffffffffffffff16141561090f576001915050610922565b808060010191505061088b565b50600090505b919050565b61092f6121df565b60088281548110151561093e57fe5b90600052602060002090600c0201610180604051908101604052908160008201548152602001600182018054600181600116156101000203166002900480601f0160208091040260200160405190810160405280929190818152602001828054600181600116156101000203166002900480156109fc5780601f106109d1576101008083540402835291602001916109fc565b820191906000526020600020905b8154815290600101906020018083116109df57829003601f168201915b505050505081526020016002820160009054906101000a900473ffffffffffffffffffffffffffffffffffffffff1673ffffffffffffffffffffffffffffffffffffffff1673ffffffffffffffffffffffffffffffffffffffff168152602001600382015481526020016004820154815260200160058201548152602001600682018054600181600116156101000203166002900480601f016020809104026020016040519081016040528092919081815260200182805460018160011615610100020316600290048015610b125780601f10610ae757610100808354040283529160200191610b12565b820191906000526020600020905b815481529060010190602001808311610af557829003601f168201915b505050505081526020016007820160009054906101000a900460ff166002811115610b3957fe5b6002811115610b4457fe5b81526020016008820154815260200160098201805480602002602001604051908101604052809291908181526020018280548015610bd757602002820191906000526020600020905b8160009054906101000a900473ffffffffffffffffffffffffffffffffffffffff1673ffffffffffffffffffffffffffffffffffffffff1681526020019060010190808311610b8d575b50505050508152602001600a820160009054906101000a900473ffffffffffffffffffffffffffffffffffffffff1673ffffffffffffffffffffffffffffffffffffffff1673ffffffffffffffffffffffffffffffffffffffff168152602001600b820154815250509050919050565b60011515600260003373ffffffffffffffffffffffffffffffffffffffff1673ffffffffffffffffffffffffffffffffffffffff16815260200190815260200160002060009054906101000a900460ff16151514151515610cdd576040517f08c379a0000000000000000000000000000000000000000000000000000000008152600401610cd490612d7e565b60405180910390fd5b60011515600360003373ffffffffffffffffffffffffffffffffffffffff1673ffffffffffffffffffffffffffffffffffffffff16815260200190815260200160002060009054906101000a900460ff16151514151515610d3d57600080fd5b60016000803373ffffffffffffffffffffffffffffffffffffffff1673ffffffffffffffffffffffffffffffffffffffff1681526020019081526020016000208190555080600160003373ffffffffffffffffffffffffffffffffffffffff1673ffffffffffffffffffffffffffffffffffffffff1681526020019081526020016000209080519060200190610dd492919061227b565b506001600260003373ffffffffffffffffffffffffffffffffffffffff1673ffffffffffffffffffffffffffffffffffffffff16815260200190815260200160002060006101000a81548160ff02191690831515021790555050565b80610e3b81336115cb565b151515610e7d576040517f08c379a0000000000000000000000000000000000000000000000000000000008152600401610e7490612d5e565b60405180910390fd5b8160006002811115610e8b57fe5b600882815481101515610e9a57fe5b90600052602060002090600c020160070160009054906101000a900460ff166002811115610ec457fe5b141515610f06576040517f08c379a0000000000000000000000000000000000000000000000000000000008152600401610efd90612d9e565b60405180910390fd5b826000803373ffffffffffffffffffffffffffffffffffffffff1673ffffffffffffffffffffffffffffffffffffffff16815260200190815260200160002054600882815481101515610f5557fe5b90600052602060002090600c02016008015411151515610f7457600080fd5b600884815481101515610f8357fe5b90600052602060002090600c02016009013390806001815401808255809150509060018203906000526020600020016000909192909190916101000a81548173ffffffffffffffffffffffffffffffffffffffff021916908373ffffffffffffffffffffffffffffffffffffffff1602179055505050505050565b60036020528060005260406000206000915054906101000a900460ff1681565b600560009054906101000a900473ffffffffffffffffffffffffffffffffffffffff1681565b61104d336106ee565b151561108e576040517f08c379a000000000000000000000000000000000000000000000000000000000815260040161108590612dbe565b60405180910390fd5b60078190806001815401808255809150509060018203906000526020600020016000909192909190916101000a81548173ffffffffffffffffffffffffffffffffffffffff021916908373ffffffffffffffffffffffffffffffffffffffff1602179055505050565b813373ffffffffffffffffffffffffffffffffffffffff1660088281548110151561111e57fe5b90600052602060002090600c0201600a0160009054906101000a900473ffffffffffffffffffffffffffffffffffffffff1673ffffffffffffffffffffffffffffffffffffffff1614151561117257600080fd5b818051906020012060088481548110151561118957fe5b90600052602060002090600c0201600b018190555060026008848154811015156111af57fe5b90600052602060002090600c020160070160006101000a81548160ff021916908360028111156111db57fe5b021790555060016000803373ffffffffffffffffffffffffffffffffffffffff1673ffffffffffffffffffffffffffffffffffffffff168152602001908152602001600020600082825401925050819055503373ffffffffffffffffffffffffffffffffffffffff166108fc60088581548110151561125657fe5b90600052602060002090600c0201600301549081150290604051600060405180830381858888f19350505050158015611293573d6000803e3d6000fd5b50505050565b600080600090505b600880549050811015611339576008838154811015156112bd57fe5b90600052602060002090600c020160020160009054906101000a900473ffffffffffffffffffffffffffffffffffffffff1673ffffffffffffffffffffffffffffffffffffffff163373ffffffffffffffffffffffffffffffffffffffff16141561132c57600191505061133f565b80806001019150506112a1565b50600090505b919050565b600080600090505b60088481548110151561135b57fe5b90600052602060002090600c0201600901805490508110156114195760088481548110151561138657fe5b90600052602060002090600c0201600901818154811015156113a457fe5b9060005260206000200160009054906101000a900473ffffffffffffffffffffffffffffffffffffffff1673ffffffffffffffffffffffffffffffffffffffff168373ffffffffffffffffffffffffffffffffffffffff16141561140c57600191505061141f565b808060010191505061134c565b50600090505b92915050565b600460009054906101000a900473ffffffffffffffffffffffffffffffffffffffff1681565b611454336106ee565b1515611495576040517f08c379a000000000000000000000000000000000000000000000000000000000815260040161148c90612dbe565b60405180910390fd5b8060011515600260008373ffffffffffffffffffffffffffffffffffffffff1673ffffffffffffffffffffffffffffffffffffffff16815260200190815260200160002060009054906101000a900460ff16151514151561152b576040517f08c379a000000000000000000000000000000000000000000000000000000000815260040161152290612e3e565b60405180910390fd5b6001600360008473ffffffffffffffffffffffffffffffffffffffff1673ffffffffffffffffffffffffffffffffffffffff16815260200190815260200160002060006101000a81548160ff02191690831515021790555060008060008473ffffffffffffffffffffffffffffffffffffffff1673ffffffffffffffffffffffffffffffffffffffff168152602001908152602001600020819055505050565b600080600090505b6008848154811015156115e257fe5b90600052602060002090600c0201600901805490508110156116a05760088481548110151561160d57fe5b90600052602060002090600c02016009018181548110151561162b57fe5b9060005260206000200160009054906101000a900473ffffffffffffffffffffffffffffffffffffffff1673ffffffffffffffffffffffffffffffffffffffff168373ffffffffffffffffffffffffffffffffffffffff1614156116935760019150506116a6565b80806001019150506115d3565b50600090505b92915050565b60026020528060005260406000206000915054906101000a900460ff1681565b6116d533610883565b1515611716576040517f08c379a000000000000000000000000000000000000000000000000000000000815260040161170d90612dde565b60405180910390fd5b61171e6121df565b81816020018190525033816040019073ffffffffffffffffffffffffffffffffffffffff16908173ffffffffffffffffffffffffffffffffffffffff168152505085816060018181525050348160800181815250508442018160a0018181525050838160c0018190525060008160e00190600281111561179a57fe5b908160028111156117a757fe5b8152505082816101000181815250506001600880549050038160000181815250506008819080600181540180825580915050906001820390600052602060002090600c02016000909192909190915060008201518160000155602082015181600101908051906020019061181c9291906122fb565b5060408201518160020160006101000a81548173ffffffffffffffffffffffffffffffffffffffff021916908373ffffffffffffffffffffffffffffffffffffffff160217905550606082015181600301556080820151816004015560a0820151816005015560c082015181600601908051906020019061189e9291906122fb565b5060e08201518160070160006101000a81548160ff021916908360028111156118c357fe5b021790555061010082015181600801556101208201518160090190805190602001906118f092919061237b565b5061014082015181600a0160006101000a81548173ffffffffffffffffffffffffffffffffffffffff021916908373ffffffffffffffffffffffffffffffffffffffff16021790555061016082015181600b0155505050505050505050565b804260088281548110151561196057fe5b90600052602060002090600c0201600501541115156119b4576040517f08c379a00000000000000000000000000000000000000000000000000000000081526004016119ab90612dfe565b60405180910390fd5b60016000806008858154811015156119c857fe5b90600052602060002090600c0201600a0160009054906101000a900473ffffffffffffffffffffffffffffffffffffffff1673ffffffffffffffffffffffffffffffffffffffff1673ffffffffffffffffffffffffffffffffffffffff168152602001908152602001600020600082825403925050819055505050565b600881815481101515611a5457fe5b90600052602060002090600c0201600091509050806000015490806001018054600181600116156101000203166002900480601f016020809104026020016040519081016040528092919081815260200182805460018160011615610100020316600290048015611b065780601f10611adb57610100808354040283529160200191611b06565b820191906000526020600020905b815481529060010190602001808311611ae957829003601f168201915b5050505050908060020160009054906101000a900473ffffffffffffffffffffffffffffffffffffffff1690806003015490806004015490806005015490806006018054600181600116156101000203166002900480601f016020809104026020016040519081016040528092919081815260200182805460018160011615610100020316600290048015611bdc5780601f10611bb157610100808354040283529160200191611bdc565b820191906000526020600020905b815481529060010190602001808311611bbf57829003601f168201915b5050505050908060070160009054906101000a900460ff169080600801549080600a0160009054906101000a900473ffffffffffffffffffffffffffffffffffffffff169080600b015490508b565b6000600780549050905090565b6000600680549050905090565b81611c4f81611299565b1515611c5a57600080fd5b8260006002811115611c6857fe5b600882815481101515611c7757fe5b90600052602060002090600c020160070160009054906101000a900460ff166002811115611ca157fe5b141515611ce3576040517f08c379a0000000000000000000000000000000000000000000000000000000008152600401611cda90612d9e565b60405180910390fd5b8383611cef8282611344565b1515611cfa57600080fd5b84600887815481101515611d0a57fe5b90600052602060002090600c0201600a0160006101000a81548173ffffffffffffffffffffffffffffffffffffffff021916908373ffffffffffffffffffffffffffffffffffffffff1602179055506001600887815481101515611d6a57fe5b90600052602060002090600c020160070160006101000a81548160ff02191690836002811115611d9657fe5b0217905550600886815481101515611daa57fe5b90600052602060002090600c02016009016000611dc79190612405565b505050505050565b60006020528060005260406000206000915090505481565b60016020528060005260406000206000915090508054600181600116156101000203166002900480601f016020809104026020016040519081016040528092919081815260200182805460018160011615610100020316600290048015611e8f5780601f10611e6457610100808354040283529160200191611e8f565b820191906000526020600020905b815481529060010190602001808311611e7257829003601f168201915b505050505081565b60606008805480602002602001604051908101604052809291908181526020016000905b828210156121d657838290600052602060002090600c0201610180604051908101604052908160008201548152602001600182018054600181600116156101000203166002900480601f016020809104026020016040519081016040528092919081815260200182805460018160011615610100020316600290048015611f835780601f10611f5857610100808354040283529160200191611f83565b820191906000526020600020905b815481529060010190602001808311611f6657829003601f168201915b505050505081526020016002820160009054906101000a900473ffffffffffffffffffffffffffffffffffffffff1673ffffffffffffffffffffffffffffffffffffffff1673ffffffffffffffffffffffffffffffffffffffff168152602001600382015481526020016004820154815260200160058201548152602001600682018054600181600116156101000203166002900480601f0160208091040260200160405190810160405280929190818152602001828054600181600116156101000203166002900480156120995780601f1061206e57610100808354040283529160200191612099565b820191906000526020600020905b81548152906001019060200180831161207c57829003601f168201915b505050505081526020016007820160009054906101000a900460ff1660028111156120c057fe5b60028111156120cb57fe5b8152602001600882015481526020016009820180548060200260200160405190810160405280929190818152602001828054801561215e57602002820191906000526020600020905b8160009054906101000a900473ffffffffffffffffffffffffffffffffffffffff1673ffffffffffffffffffffffffffffffffffffffff1681526020019060010190808311612114575b50505050508152602001600a820160009054906101000a900473ffffffffffffffffffffffffffffffffffffffff1673ffffffffffffffffffffffffffffffffffffffff1673ffffffffffffffffffffffffffffffffffffffff168152602001600b8201548152505081526020019060010190611ebb565b50505050905090565b610180604051908101604052806000815260200160608152602001600073ffffffffffffffffffffffffffffffffffffffff168152602001600081526020016000815260200160008152602001606081526020016000600281111561224057fe5b81526020016000815260200160608152602001600073ffffffffffffffffffffffffffffffffffffffff168152602001600080191681525090565b828054600181600116156101000203166002900490600052602060002090601f016020900481019282601f106122bc57805160ff19168380011785556122ea565b828001600101855582156122ea579182015b828111156122e95782518255916020019190600101906122ce565b5b5090506122f79190612426565b5090565b828054600181600116156101000203166002900490600052602060002090601f016020900481019282601f1061233c57805160ff191683800117855561236a565b8280016001018555821561236a579182015b8281111561236957825182559160200191906001019061234e565b5b5090506123779190612426565b5090565b8280548282559060005260206000209081019282156123f4579160200282015b828111156123f35782518260006101000a81548173ffffffffffffffffffffffffffffffffffffffff021916908373ffffffffffffffffffffffffffffffffffffffff1602179055509160200191906001019061239b565b5b509050612401919061244b565b5090565b50805460008255906000526020600020908101906124239190612426565b50565b61244891905b8082111561244457600081600090555060010161242c565b5090565b90565b61248b91905b8082111561248757600081816101000a81549073ffffffffffffffffffffffffffffffffffffffff021916905550600101612451565b5090565b90565b600061249a823561307c565b905092915050565b600082601f83011215156124b557600080fd5b81356124c86124c382612f81565b612f54565b915080825260208301602083018583830111156124e457600080fd5b6124ef8382846130aa565b50505092915050565b6000612504823561308e565b905092915050565b60006020828403121561251e57600080fd5b600061252c8482850161248e565b91505092915050565b60006020828403121561254757600080fd5b600082013567ffffffffffffffff81111561256157600080fd5b61256d848285016124a2565b91505092915050565b60006020828403121561258857600080fd5b6000612596848285016124f8565b91505092915050565b600080604083850312156125b257600080fd5b60006125c0858286016124f8565b92505060206125d18582860161248e565b9150509250929050565b600080604083850312156125ee57600080fd5b60006125fc858286016124f8565b925050602083013567ffffffffffffffff81111561261957600080fd5b612625858286016124a2565b9150509250929050565b600080600080600060a0868803121561264757600080fd5b6000612655888289016124f8565b9550506020612666888289016124f8565b945050604086013567ffffffffffffffff81111561268357600080fd5b61268f888289016124a2565b93505060606126a0888289016124f8565b925050608086013567ffffffffffffffff8111156126bd57600080fd5b6126c9888289016124a2565b9150509295509295909350565b6126df81613014565b82525050565b6126ee81613002565b82525050565b60006126ff82612fc7565b80845260208401935061271183612fad565b60005b82811015612743576127278683516126e5565b61273082612fe8565b9150602086019550600181019050612714565b50849250505092915050565b600061275a82612fd2565b8084526020840193508360208202850161277385612fba565b60005b848110156127ac57838303885261278e838351612ba8565b925061279982612ff5565b9150602088019750600181019050612776565b508196508694505050505092915050565b6127c681613026565b82525050565b6127d581613032565b82525050565b6127e481613098565b82525050565b60006127f582612fdd565b8084526128098160208601602086016130b9565b612812816130ec565b602085010191505092915050565b6000601682527f496c20612064c3a96ac3a020706f7374756cc3a92021000000000000000000006020830152604082019050919050565b6000602482527f436574207574696c69736174657572206573742064c3a96ac3a020696e73637260208301527f69742021000000000000000000000000000000000000000000000000000000006040830152606082019050919050565b6000601482527f42414820434553542054524f50205441524420210000000000000000000000006020830152604082019050919050565b6000602182527f566f7573206e27c3aa74657320706173206c652070726f707269c3a97461697260208301527f65000000000000000000000000000000000000000000000000000000000000006040830152606082019050919050565b6000602582527f566f74726520656e7472657072697365206e276573742070617320696e73637260208301527f69746520210000000000000000000000000000000000000000000000000000006040830152606082019050919050565b6000601782527f546f756a6f7572732064616e73206c65732074656d70730000000000000000006020830152604082019050919050565b6000602682527f566f74726520656e7472657072697365206573742064c3a96ac3a020696e736360208301527f72697465202100000000000000000000000000000000000000000000000000006040830152606082019050919050565b6000602c82527f566f7573206e6520706f7576657a207061732062616e20756e2074797065207060208301527f617320696e7363726974202100000000000000000000000000000000000000006040830152606082019050919050565b600061018083016000830151612aaf6000860182612cba565b5060208301518482036020860152612ac782826127ea565b9150506040830151612adc60408601826126e5565b506060830151612aef6060860182612cba565b506080830151612b026080860182612cba565b5060a0830151612b1560a0860182612cba565b5060c083015184820360c0860152612b2d82826127ea565b91505060e0830151612b4260e08601826127db565b50610100830151612b57610100860182612cba565b50610120830151848203610120860152612b7182826126f4565b915050610140830151612b886101408601826126e5565b50610160830151612b9d6101608601826127cc565b508091505092915050565b600061018083016000830151612bc16000860182612cba565b5060208301518482036020860152612bd982826127ea565b9150506040830151612bee60408601826126e5565b506060830151612c016060860182612cba565b506080830151612c146080860182612cba565b5060a0830151612c2760a0860182612cba565b5060c083015184820360c0860152612c3f82826127ea565b91505060e0830151612c5460e08601826127db565b50610100830151612c69610100860182612cba565b50610120830151848203610120860152612c8382826126f4565b915050610140830151612c9a6101408601826126e5565b50610160830151612caf6101608601826127cc565b508091505092915050565b612cc381613072565b82525050565b6000602082019050612cde60008301846126e5565b92915050565b6000602082019050612cf960008301846126d6565b92915050565b60006020820190508181036000830152612d19818461274f565b905092915050565b6000602082019050612d3660008301846127bd565b92915050565b60006020820190508181036000830152612d5681846127ea565b905092915050565b60006020820190508181036000830152612d7781612820565b9050919050565b60006020820190508181036000830152612d9781612857565b9050919050565b60006020820190508181036000830152612db7816128b4565b9050919050565b60006020820190508181036000830152612dd7816128eb565b9050919050565b60006020820190508181036000830152612df781612948565b9050919050565b60006020820190508181036000830152612e17816129a5565b9050919050565b60006020820190508181036000830152612e37816129dc565b9050919050565b60006020820190508181036000830152612e5781612a39565b9050919050565b60006020820190508181036000830152612e788184612a96565b905092915050565b6000602082019050612e956000830184612cba565b92915050565b600061016082019050612eb1600083018e612cba565b8181036020830152612ec3818d6127ea565b9050612ed2604083018c6126e5565b612edf606083018b612cba565b612eec608083018a612cba565b612ef960a0830189612cba565b81810360c0830152612f0b81886127ea565b9050612f1a60e08301876127db565b612f28610100830186612cba565b612f366101208301856126e5565b612f446101408301846127cc565b9c9b505050505050505050505050565b6000604051905081810181811067ffffffffffffffff82111715612f7757600080fd5b8060405250919050565b600067ffffffffffffffff821115612f9857600080fd5b601f19601f8301169050602081019050919050565b6000602082019050919050565b6000602082019050919050565b600081519050919050565b600081519050919050565b600081519050919050565b6000602082019050919050565b6000602082019050919050565b600061300d82613052565b9050919050565b600061301f82613052565b9050919050565b60008115159050919050565b6000819050919050565b600060038210151561304a57fe5b819050919050565b600073ffffffffffffffffffffffffffffffffffffffff82169050919050565b6000819050919050565b600061308782613052565b9050919050565b6000819050919050565b60006130a38261303c565b9050919050565b82818337600083830152505050565b60005b838110156130d75780820151818401526020810190506130bc565b838111156130e6576000848401525b50505050565b6000601f19601f830116905091905056fea265627a7a7230582079b87c77d4d0fe6b924f71a74cea7f51153c6e6a1b7a4d0c221dcfffa0a8d6a16c6578706572696d656e74616cf50037",
  "source": "pragma solidity ^0.5.0;\r\npragma experimental ABIEncoderV2;\r\n\r\n//import \"./SafeMath.sol\";\r\n\r\ncontract PlaceDeMarche {\r\n\r\n    // using SafeMath for uint;\r\n\r\n    // Rcupration de la rputation d'un illustrateur depuis son adresse\r\n    mapping(address => uint) public userToReputation;\r\n\r\n    // Rcupratiion du nom d'un illustrateur depuis son adresse\r\n    mapping(address => string) public userToName;\r\n\r\n    // Voir si l'illustrateur est inscrit\r\n    mapping(address => bool) public users;\r\n\r\n    // Voir si l'illustrateur est blacklist\r\n    mapping(address => bool) public blackList;\r\n\r\n    // adresse du propritaire\r\n    address public owner;\r\n\r\n    // Adresse du porte monnaie cibl\r\n    address payable public wallet;\r\n\r\n    // Liste des entreprises inscrites\r\n    address[] public companies;\r\n\r\n    // Liste des administrateurs\r\n    address[] public admins;\r\n\r\n    // Status de la demande\r\n    enum Status {OUVERTE, ENCOURS, FERMEE}\r\n\r\n    // Structure de demande  crer lors de l'ajout d'une demande\r\n    struct Demande {\r\n        uint id;\r\n        string nomOffre;\r\n        address addressCompany;\r\n        uint remuneration;\r\n        uint depot;\r\n        uint delay;\r\n        string description;\r\n        Status status;\r\n        uint minReputation;\r\n        address[] candidates;\r\n        address illustrateurChoisi;\r\n        bytes32 travail;\r\n    }\r\n\r\n    // Liste des demandes\r\n    Demande[] public demandes;\r\n\r\n\r\n    // Initialisation du contrat avec l'ajout de l'owner dans la liste des admins\r\n    constructor() public{\r\n        owner = msg.sender;\r\n        admins.push(owner);\r\n    }\r\n\r\n    /////////////////////////////////////////////////////////////////////////////////////////////////////\r\n    // MODIFIERS ////////////////////////////////////////////////////////////////////////////////////////\r\n    /////////////////////////////////////////////////////////////////////////////////////////////////////\r\n\r\n    modifier checkReputation(uint _idDemande){\r\n        require(demandes[_idDemande].minReputation <= userToReputation[msg.sender]);\r\n        _;\r\n    }\r\n\r\n    modifier checkIfOpen(uint _idDemande) {\r\n        require(demandes[_idDemande].status == Status.OUVERTE, \"BAH CEST TROP TARD !\");\r\n        _;\r\n    }\r\n\r\n    modifier checkIfIllustrateurInCandidates(uint _idDemande, address _illustrateur){\r\n        require(isInCandidates(_idDemande, _illustrateur));\r\n        _;\r\n    }\r\n\r\n    modifier checkDelay(uint _idDemande){\r\n        require(demandes[_idDemande].delay > now, \"Toujours dans les temps\");\r\n        _;\r\n    }\r\n\r\n    modifier checkIllustrateurChoisi(uint _idDemande){\r\n        require(demandes[_idDemande].illustrateurChoisi == msg.sender);\r\n        _;\r\n    }\r\n\r\n    modifier pasEncorePostule(uint _idDemande){\r\n        require(!aDejaPostule(_idDemande, msg.sender), \"Il a dj postul !\");\r\n        _;\r\n    }\r\n\r\n    modifier pasInscrit(){\r\n        require(users[msg.sender] != true, \"Cet utilisateur est dj inscrit !\");\r\n        _;\r\n    }\r\n\r\n    modifier companyPasInscrit(){\r\n        require(!isCompanyInscrit(msg.sender), \"Votre entreprise est dj inscrite !\");\r\n        _;\r\n    }\r\n\r\n    modifier companyInscrit(){\r\n        require(isCompanyInscrit(msg.sender), \"Votre entreprise n'est pas inscrite !\");\r\n        _;\r\n    }\r\n\r\n    modifier bannable(address _illustrateur){\r\n        require(users[_illustrateur] == true, \"Vous ne pouvez pas ban un type pas inscrit !\");\r\n        _;\r\n    }\r\n\r\n    modifier onlyAdmin(){\r\n        require(isAdmin(msg.sender), \"Vous n'tes pas le propritaire\");\r\n        _;\r\n    }\r\n\r\n    modifier notBanned(){\r\n        require(blackList[msg.sender] != true);\r\n        _;\r\n    }\r\n\r\n    modifier onlyCompany(uint _idDemande){\r\n        require(idDemandeToCompany(_idDemande));\r\n        _;\r\n    }\r\n\r\n    /////////////////////////////////////////////////////////////////////////////////////////////////////\r\n    // BOOLEAN RETURN FUNCTIONS FOR MODIFIERS ///////////////////////////////////////////////////////////\r\n    /////////////////////////////////////////////////////////////////////////////////////////////////////\r\n\r\n    // Check si admin\r\n    function isAdmin(address user) public view returns (bool) {\r\n        for (uint i = 0; i < admins.length; i++) {\r\n            if (user == admins[i]) {\r\n                return true;\r\n            }\r\n        }\r\n        return false;\r\n    }\r\n\r\n    // Check si entreprise est inscrite\r\n    function isCompanyInscrit(address company) public view returns (bool) {\r\n        for (uint i = 0; i < companies.length; i++) {\r\n            if (company == companies[i]) {\r\n                return true;\r\n            }\r\n        }\r\n        return false;\r\n    }\r\n\r\n    // Check si l'adresse de l'entreprise correspond  l'adresse du sender\r\n    function idDemandeToCompany(uint _idDemande) public view returns (bool) {\r\n        for (uint i = 0; i < demandes.length; i++) {\r\n            if (msg.sender == demandes[_idDemande].addressCompany) {\r\n                return true;\r\n            }\r\n        }\r\n        return false;\r\n    }\r\n\r\n\r\n    // Check si illustrateur est candidat\r\n    function isInCandidates(uint _idDemande, address _illustrateur) public view returns (bool) {\r\n        for (uint i = 0; i < demandes[_idDemande].candidates.length; i++) {\r\n            if (_illustrateur == demandes[_idDemande].candidates[i]) {\r\n                return true;\r\n            }\r\n        }\r\n        return false;\r\n    }\r\n\r\n    // Check si illustrateur est parmi les candidats de la demande (pour la fonction postuler())\r\n    function aDejaPostule(uint _idDemande, address _illustrateur) public view returns (bool) {\r\n        for (uint i = 0; i < demandes[_idDemande].candidates.length; i++) {\r\n            if (_illustrateur == demandes[_idDemande].candidates[i]) {\r\n                return true;\r\n            }\r\n        }\r\n        return false;\r\n    }\r\n\r\n    // Retourne le nombre d'admins\r\n    function getAdminLength() public view returns (uint){\r\n        return admins.length;\r\n    }\r\n\r\n    // Retourne le nombre d'entreprises\r\n    function getCompaniesLength() public view returns (uint) {\r\n        return companies.length;\r\n    }\r\n\r\n    // Retourne une demande en particulier\r\n    function getDemande(uint _id) public view returns (Demande memory) {\r\n        return demandes[_id];\r\n    }\r\n\r\n    // Retourne toutes les demandes\r\n    function getAllDemandes() public view returns (Demande[] memory){\r\n        return demandes;\r\n    }\r\n\r\n    /////////////////////////////////////////////////////////////////////////////////////////////////////\r\n    /////////////////////////////////////////////////////////////////////////////////////////////////////\r\n    /////////////////////////////////////////////////////////////////////////////////////////////////////\r\n\r\n\r\n    // Ajout d'un admin par un admin\r\n    function addAdmin(address newAdmin) onlyAdmin public {\r\n        admins.push(newAdmin);\r\n    }\r\n\r\n    // Inscription d'un illustrateur si il n'est pas dj inscrit + il ne figure pas dans la liste des bannis\r\n    function inscription(string memory _name) pasInscrit notBanned public {\r\n        userToReputation[msg.sender] = 1;\r\n        userToName[msg.sender] = _name;\r\n        users[msg.sender] = true;\r\n    }\r\n\r\n    // inscription de l'entreprise en vrifiant que l'entreprise ne l'est pas dj\r\n    function inscriptionCompany() companyPasInscrit public {\r\n        companies.push(msg.sender);\r\n    }\r\n\r\n    // Ajout d'une demande en vrifiant que l'entreprise est inscrite\r\n    function ajouterDemande(uint _remuneration, uint _delay, string memory _description, uint _minReputation, string memory _nomOffre) companyInscrit payable public {\r\n        Demande memory demande;\r\n        demande.nomOffre = _nomOffre;\r\n        demande.addressCompany = msg.sender;\r\n        demande.remuneration = _remuneration;\r\n        demande.depot = msg.value;\r\n        demande.delay = now + _delay;\r\n        demande.description = _description;\r\n        demande.status = Status.OUVERTE;\r\n        demande.minReputation = _minReputation;\r\n        demande.id = demandes.length - 1;\r\n        demandes.push(demande);\r\n\r\n    }\r\n\r\n    // Illustrateur qui postule en insrant l'id de la demande, en vrifiant si il n'a pas postul + si le status de la demande est OUVERTE + si rputation correspond\r\n    function postuler(uint _idDemande) pasEncorePostule(_idDemande) checkIfOpen(_idDemande) checkReputation(_idDemande) public {\r\n        demandes[_idDemande].candidates.push(msg.sender);\r\n    }\r\n\r\n    // Entreprise accepte l'offre, en vrifiant si l'id de la demande correspond  l'entreprise, si la demande est OUVERTE et si l'illustrateur est dans les candidats\r\n    function accepterOffre(uint _idDemande, address _illustrateur) onlyCompany(_idDemande) checkIfOpen(_idDemande) checkIfIllustrateurInCandidates(_idDemande, _illustrateur) public {\r\n        demandes[_idDemande].illustrateurChoisi = _illustrateur;\r\n        demandes[_idDemande].status = Status.ENCOURS;\r\n        delete demandes[_idDemande].candidates;\r\n\r\n    }\r\n\r\n    // Illustrateur donne l'id de la demande ainsi que l'adresse de son travail en vrifiant si l'illustrateur choisi est bien celui de la demande en question\r\n    function livraison(uint _idDemande, string memory _travail) public checkIllustrateurChoisi(_idDemande) {\r\n        demandes[_idDemande].travail = keccak256(bytes(_travail));\r\n        demandes[_idDemande].status = Status.FERMEE;\r\n        userToReputation[msg.sender] += 1;\r\n        msg.sender.transfer(demandes[_idDemande].remuneration);\r\n    }\r\n\r\n    // Retard de la demande en vrifiant que le dlais est suprieur  la date du jour\r\n    function retard(uint _idDemande) public checkDelay(_idDemande) {\r\n        userToReputation[demandes[_idDemande].illustrateurChoisi] -= 1;\r\n    }\r\n\r\n    // Ban d'un illustrateur en vrifiant si c'est l'admin qui fait la requte + si l'illustrateur existe\r\n    function banned(address _illustrateur) onlyAdmin bannable(_illustrateur) public {\r\n        blackList[_illustrateur] = true;\r\n        userToReputation[_illustrateur] = 0;\r\n    }\r\n}\r\n",
  "sourcePath": "C:\\Users\\Fabrice\\Desktop\\Alyra\\Exercices_Alyra\\Defi2\\contracts\\PlaceDeMarche.sol",
  "compiler": {
    "name": "solc",
    "version": "0.5.0+commit.1d4f565a.Emscripten.clang"
  },
  "schemaVersion": "3.1.0",
  "updatedAt": "2020-05-11T15:27:26.509Z",
  "networkType": "ethereum",
  "devdoc": {
    "methods": {}
  },
  "userdoc": {
    "methods": {
      "addAdmin(address)": {
        "notice": "//////////////////////////////////////////////////////////////////////////////////////////////////"
      },
      "isAdmin(address)": {
        "notice": "//////////////////////////////////////////////////////////////////////////////////////////////////"
      }
    }
  }
}